:020000040800F2
:100000000000022069390008F5360008FD360008B6
:10001000053700080D3700081537000800000000FC
:1000200000000000000000000000000011B7000800
:100030001D3700080000000061B900082B370008D8
:10004000B9390008B9390008B9390008B9390008C8
:10005000B939000845370008B9390008B93900082E
:10006000B9390008B9390008B9390008B9390008A8
:10007000B9390008B9390008B9390008B939000898
:10008000B9390008B9390008B9390008B939000888
:10009000B9390008B9390008B9390008B939000878
:1000A0005537000869370008B9390008B939000820
:1000B000B9390008B93900087D370008B939000896
:1000C000B9390008B9390008B9390008B939000848
:1000D000B9390008B9390008B93900089137000862
:1000E000B9390008B9390008B9390008B939000828
:1000F000B9390008A5370008B9390008B93900082E
:10010000B9390008B9390008B9390008B939000807
:10011000B9390008B9390008B9390008B9390008F7
:10012000B9390008B9390008B9390008B9390008E7
:10013000B9390008B9390008B9390008B9390008D7
:10014000B9390008B9390008B9390008B9390008C7
:10015000B9390008B9390008B9390008B9390008B7
:10016000B9390008B9390008B9390008B9390008A7
:10017000B9390008B9390008B93900080000000091
:08018000B9390008B939000883
:1001900010B5054C237833B9044B13B10448AFF3C1
:1001A00000800123237010BDE80100200000000042
:1001B00004EC000808B5034B1BB103490348AFF337
:1001C000008008BD00000000EC01002004EC0008E5
:1001D00001F0FF01102A2BDB10F0070F08D010F8F8
:1001E000013B013A8B422DD010F0070F42B3F6D1FC
:1001F000F0B441EA012141EA014122F007047FF015
:1002000000070023F0E80256083C85EA010586EA6B
:10021000010685FA47F5A3FA87F586FA47F6A5FAA7
:1002200087F68EB9EED1F0BC01F0FF0102F00702B3
:1002300032B110F8013B013A83EA010313B1F8D15E
:100240000020704701387047002D06BF354603383F
:10025000073815F0010F07D1013015F4807F02BF78
:10026000013015F4C03F0130F0BC0138704700BFC9
:10027000034613F8012B002AFBD1181A01387047E6
:1002800081F0004102E000BF83F0004330B54FEA47
:1002900041044FEA430594EA050F08BF90EA020FB4
:1002A0001FBF54EA000C55EA020C7FEA645C7FEA47
:1002B000655C00F0E2804FEA5454D4EB5555B8BF6A
:1002C0006D420CDD2C4480EA020281EA030382EADB
:1002D000000083EA010180EA020281EA0303362D6D
:1002E00088BF30BD11F0004F4FEA01314FF4801C40
:1002F0004CEA113102D0404261EB410113F0004F52
:100300004FEA03334CEA133302D0524263EB430308
:1003100094EA050F00F0A780A4F10104D5F1200EA6
:100320000DDB02FA0EFC22FA05F2801841F1000101
:1003300003FA0EF2801843FA05F359410EE0A5F1D5
:1003400020050EF1200E012A03FA0EFC28BF4CF006
:10035000020C43FA05F3C01851EBE37101F00045BC
:1003600007D54FF0000EDCF1000C7EEB00006EEBC9
:100370000101B1F5801F1BD3B1F5001F0CD3490853
:100380005FEA30004FEA3C0C04F101044FEA4452AA
:1003900012F5800F80F09A80BCF1004F08BF5FEA31
:1003A000500C50F1000041EB045141EA050130BD11
:1003B0005FEA4C0C404141EB0101013C28BFB1F523
:1003C000801FE9D291F0000F04BF01460020B1FA6E
:1003D00081F308BF2033A3F10B03B3F120020CDA41
:1003E0000C3208DD02F1140CC2F10C0201FA0CF01F
:1003F00021FA02F10CE002F11402D8BFC2F1200C84
:1004000001FA02F120FA0CFCDCBF41EA0C01904039
:10041000E41AA2BF01EB0451294330BD6FEA040482
:100420001F3C1CDA0C340EDC04F11404C4F120026D
:1004300020FA04F001FA02F340EA030021FA04F37F
:1004400045EA030130BDC4F10C04C4F1200220FAD6
:1004500002F001FA04F340EA0300294630BD21FA14
:1004600004F0294630BD94F0000F83F4801306BFDA
:1004700081F480110134013D4EE77FEA645C18BFCE
:100480007FEA655C29D094EA050F08BF90EA020F65
:1004900005D054EA000C04BF1946104630BD91EA5D
:1004A000030F1EBF0021002030BD5FEA545C05D160
:1004B0004000494128BF41F0004130BD14F580049F
:1004C0003CBF01F5801130BD01F0004545F0FE4113
:1004D00041F470014FF0000030BD7FEA645C1ABF48
:1004E000194610467FEA655C1CBF0B46024650EA7F
:1004F000013406BF52EA033591EA030F41F40021AB
:1005000030BD00BF90F0000F04BF0021704730B530
:100510004FF4806404F132044FF000054FF0000105
:1005200050E700BF90F0000F04BF0021704730B5C6
:100530004FF4806404F1320410F0004548BF40429B
:100540004FF000013EE700BF42004FEAE2014FEAF0
:1005500031014FEA02701FBF12F07F4393F07F4FCB
:1005600081F06051704732F07F4208BF704793F0CE
:100570007F4F04BF41F40021704730B54FF46074E1
:1005800001F0004521F000411CE700BF50EA0102E4
:1005900008BF704730B54FF000050AE050EA01028D
:1005A00008BF704730B511F0004502D5404261EBFD
:1005B00041014FF4806404F132045FEA915C3FF43E
:1005C000D8AE4FF003025FEADC0C18BF03325FEADB
:1005D000DC0C18BF033202EBDC02C2F1200300FA8C
:1005E00003FC20FA02F001FA03FE40EA0E0021FAB1
:1005F00002F11444BDE600BF70B54FF0FF0C4CF49F
:10060000E06C1CEA11541DBF1CEA135594EA0C0F50
:1006100095EA0C0F00F0DEF82C4481EA030621EA8B
:100620004C5123EA4C5350EA013518BF52EA0335C6
:1006300041F4801143F4801338D0A0FB02CE4FF078
:100640000005E1FB02E506F00042E0FB03E54FF0A8
:100650000006E1FB03569CF0000F18BF4EF0010EA0
:10066000A4F1FF04B6F5007F64F5407404D25FEA9C
:100670004E0E6D4146EB060642EAC62141EA55514F
:100680004FEAC52040EA5E504FEACE2EB4F1FD0C91
:1006900088BFBCF5E06F1ED8BEF1004F08BF5FEA0F
:1006A000500E50F1000041EB045170BD06F00046C1
:1006B00046EA010140EA020081EA0301B4EB5C046E
:1006C000C2BFD4EB0C0541EA045170BD41F4801166
:1006D0004FF0000E013C00F3AB8014F1360FDEBF8B
:1006E000002001F0004170BDC4F10004203C35DA67
:1006F0000C341BDC04F11404C4F1200500FA05F3EA
:1007000020FA04F001FA05F240EA020001F000428A
:1007100021F0004110EBD37021FA04F642EB060100
:100720005EEA430E08BF20EAD37070BDC4F10C042A
:10073000C4F1200500FA04F320FA05F001FA04F2EE
:1007400040EA020001F0004110EBD37041F10001DA
:100750005EEA430E08BF20EAD37070BDC4F12005E5
:1007600000FA05F24EEA020E20FA04F301FA05F24D
:1007700043EA020321FA04F001F0004121FA04F2F5
:1007800020EA020000EBD3705EEA430E08BF20EAC5
:10079000D37070BD94F0000F0FD101F000464000FF
:1007A00041EB010111F4801F08BF013CF7D041EA81
:1007B000060195F0000F18BF704703F00046520085
:1007C00043EB030313F4801F08BF013DF7D043EA56
:1007D0000603704794EA0C0F0CEA135518BF95EA0C
:1007E0000C0F0CD050EA410618BF52EA4306D1D193
:1007F00081EA030101F000414FF0000070BD50EAB2
:10080000410606BF1046194652EA430619D094EA3B
:100810000C0F02D150EA013613D195EA0C0F05D125
:1008200052EA03361CBF104619460AD181EA030179
:1008300001F0004141F0FE4141F470014FF0000031
:1008400070BD41F0FE4141F4780170BD70B54FF0CC
:10085000FF0C4CF4E06C1CEA11541DBF1CEA13554C
:1008600094EA0C0F95EA0C0F00F0A7F8A4EB05042E
:1008700081EA030E52EA03354FEA013100F0888025
:100880004FEA03334FF0805545EA131343EA1263EE
:100890004FEA022245EA111545EA10654FEA0026A3
:1008A0000EF000419D4208BF964244F1FD0404F55C
:1008B000407402D25B084FEA3202B61A65EB0305B8
:1008C0005B084FEA32024FF480104FF4002CB6EB75
:1008D000020E75EB030E22BFB61A754640EA0C00F5
:1008E0005B084FEA3202B6EB020E75EB030E22BF35
:1008F000B61A754640EA5C005B084FEA3202B6EB76
:10090000020E75EB030E22BFB61A754640EA9C0034
:100910005B084FEA3202B6EB020E75EB030E22BF04
:10092000B61A754640EADC0055EA060E18D04FEAC2
:10093000051545EA16754FEA06164FEAC30343EA62
:1009400052734FEAC2025FEA1C1CC0D111F4801F2F
:100950000BD141EA00014FF000004FF0004CB6E728
:1009600011F4801F04BF01430020B4F1FD0C88BFC7
:10097000BCF5E06F3FF6AFAEB5EB030C04BFB6EBD2
:10098000020C5FEA500C50F1000041EB045170BDC5
:100990000EF0004E4EEA113114EB5C04C2BFD4EBF2
:1009A0000C0541EA045170BD41F480114FF0000E76
:1009B000013C90E645EA060E8DE60CEA135594EAF2
:1009C0000C0F08BF95EA0C0F3FF43BAF94EA0C0FF5
:1009D0000AD150EA01347FF434AF95EA0C0F7FF46A
:1009E00025AF104619462CE795EA0C0F06D152EABE
:1009F00003353FF4FDAE1046194622E750EA4106A2
:100A000018BF52EA43067FF4C5AE50EA41047FF4B2
:100A10000DAF52EA43057FF4EBAE12E74FF0FF3C17
:100A200006E000BF4FF0010C02E000BF4FF0010CE8
:100A30004DF804CD4FEA410C7FEA6C5C4FEA430C61
:100A400018BF7FEA6C5C1BD001B050EA410C0CBFB0
:100A500052EA430C91EA030F02BF90EA020F002012
:100A6000704710F1000F91EA030F58BF994208BF79
:100A700090422CBFD8176FEAE37040F00100704736
:100A80004FEA410C7FEA6C5C02D150EA013C07D18D
:100A90004FEA430C7FEA6C5CD6D152EA033CD3D0D8
:100AA0005DF8040B704700BF8446104662468C46D2
:100AB0001946634600E000BF01B5FFF7B7FF002805
:100AC00048BF10F1000F01BD4DF808EDFFF7F4FF2E
:100AD0000CBF012000205DF808FB00BF4DF808EDB9
:100AE000FFF7EAFF34BF012000205DF808FB00BFDC
:100AF0004DF808EDFFF7E0FF94BF012000205DF8FE
:100B000008FB00BF4DF808EDFFF7CEFF94BF0120B2
:100B100000205DF808FB00BF4DF808EDFFF7C4FFAB
:100B200034BF012000205DF808FB00BF4FEA410CF4
:100B30007FEA6C5C02D150EA013C0AD14FEA430CD7
:100B40007FEA6C5C02D152EA033C02D14FF0000014
:100B500070474FF0010070474FEA410212F5001252
:100B600015D211D56FF47873B3EB625212D94FEAF4
:100B7000C12343F0004343EA505311F0004F23FADE
:100B800002F018BF404270474FF00000704750EA33
:100B9000013005D111F0004008BF6FF000407047F0
:100BA0004FF00000704700BF4A0011D212F500124A
:100BB00011D20DD56FF47873B3EB62520ED44FEAB5
:100BC000C12343F0004343EA505323FA02F0704735
:100BD0004FF00000704750EA013002D14FF0FF3073
:100BE00070474FF00000704753B94AB9002908BF59
:100BF00000281CBF4FF0FF314FF0FF3000F06AB902
:100C0000ADF1080C6DE904CE00F006F8DDF804E063
:100C1000DDE9022304B070472DE9F047089D0C463A
:100C2000002B4ED194468C458646B2FA82F262D9A8
:100C30004AB1C2F12003914020FA03F30CFA02FCFE
:100C4000194300FA02FE4FEA1C471FFA8CF6B1FB6B
:100C5000F7F44FEA1E4307FB141143EA014304FB78
:100C600006F199420AD91CEB030304F1FF3080F02E
:100C70001281994240F20F81023C6344591A1FFAD3
:100C80008EF3B1FBF7F007FB101143EA014300FBC1
:100C900006F69E420AD91CEB030300F1FF3180F0F7
:100CA000FC809E4240F2F980634402389B1B40EA7C
:100CB000044000211DB1D3400022C5E90032BDE847
:100CC000F0878B4205D90DB1C5E900010021084626
:100CD000F5E7B3FA83F1002946D1A34202D390424B
:100CE000C0F0F080861A64EB03030120002DE6D0EB
:100CF000C5E90063E3E7002A40F09080A1EB0C0413
:100D00004FEA1C481FFA8CF70121B4FBF8F64FEAB2
:100D10001E4308FB164443EA044307FB06F09842CF
:100D200008D91CEB030306F1FF3402D2984200F20B
:100D3000CD8026461C1A1FFA8EF3B4FBF8F008FB90
:100D4000104443EA044300FB07F79F4208D91CEB19
:100D5000030300F1FF3402D29F4200F2B08020462C
:100D6000DB1B40EA0640A5E7C1F120068B4022FAD2
:100D700006F71F4320FA06FC04FA01F343EA0C03CA
:100D8000F44000FA01F8380C4FEA1349B4FBF0FEC6
:100D90001FFA87FC00FB1E4449EA04440EFB0CF9D1
:100DA000A14502FA01F20AD93C190EF1FF3A80F08E
:100DB0008480A14540F28180AEF1020E3C44A4EB58
:100DC00009041FFA83F9B4FBF0F300FB134449EA6A
:100DD000044403FB0CFCA44507D93C1903F1FF3084
:100DE00067D2A44565D9023B3C4443EA0E40A0FBD0
:100DF0000293A4EB0C049C42CE469C4651D34ED0A9
:100E000055B1B8EB0E0364EB0C0404FA06F6CB40C4
:100E10001E43CC40C5E90064002150E7C2F1200325
:100E200020FA03F10CFA02FC24FA03F394400C4379
:100E30004FEA1C4800FA02FE1FFA8CF7B3FBF8F0E9
:100E400008FB1031230C43EA014300FB07F19942F0
:100E500008D91CEB030300F1FF362CD299422AD9A2
:100E6000023863445B1AA4B2B3FBF8F108FB1133F8
:100E700044EA034401FB07F3A34208D91CEB040432
:100E800001F1FF3613D2A34211D902396444E41AA6
:100E900041EA004139E70446F0E6084606E7C8455E
:100EA000AED2B9EB020E63EB070C0138A8E731466E
:100EB000EDE7034699E73046D4E7D6467FE763443B
:100EC00002384DE70646234608460FE7023E6344D4
:100ED00030E700BF704700BF80B500AF02F0A0FF51
:100EE00000F096F800F032FC00F094F900F0C0F940
:100EF00000F05CFA00F0AEFA00F000FB00F052FBEC
:100F000000F0FAFB00F0E2F800F032F902F0FCFE2B
:100F100005222549254807F054F908F01FF9244A0D
:100F20000021244808F064F90346234A1360234A49
:100F30000021234808F05CF90346224A1360224A44
:100F40000021224808F054F90346214A1360214A3F
:100F50000021214808F04CF90346204A1360204A3A
:100F60000021204808F044F903461F4A13601F4A35
:100F700000211F4808F03CF903461E4A13601E4A30
:100F800000211E4808F034F903461D4A13601D4A2B
:100F900000211D4808F02CF903461C4A136008F094
:100FA00001F900BFFDE700BFB40400205004002099
:100FB000F4EC0008992000089404002018ED0008C3
:100FC000C1200008980400203CED0008112500080D
:100FD0009C04002060ED0008D1260008A004002039
:100FE00084ED000865280008A4040020A8ED00088E
:100FF000B1280008A8040020CCED0008B12F00089B
:10100000AC040020F0ED0008A5300008B00400207A
:1010100080B594B000AF07F12003302200211846BC
:101020000BF0CFFC07F10C0300221A605A609A60A3
:10103000DA601A610023BB60224B1B6C214A43F02B
:10104000805313641F4B1B6C03F08053BB60BB6861
:1010500000237B601C4B1B681B4A43F480431360D6
:10106000194B1B6803F480437B607B6802233B625F
:101070000123FB6210233B630023BB6307F12003C2
:10108000184604F095FE0346002B01D002F052F8FA
:101090000F23FB6000233B6100237B610023BB61C6
:1010A0000023FB6107F10C030021184605F0F8F856
:1010B0000346002B01D002F03DF800BF5037BD467B
:1010C00080BD00BF003802400070004080B584B091
:1010D00000AF3B4600221A605A609A60DA60214BEA
:1010E000214A1A601F4B00225A601E4B00229A6050
:1010F0001C4B00221A611B4B00221A76194B00224E
:1011000083F82020174B0022DA62164B174A9A62A6
:10111000144B0022DA60134B0122DA61114B0022DA
:1011200083F830200F4B01225A610E4802F00EFF67
:101130000346002B01D001F0FDFF00233B6001239B
:101140007B600023BB603B461946064803F0E0F88D
:101150000346002B01D001F0EDFF00BF1037BD4664
:1011600080BD00BF04020020002001400100000FEC
:1011700080B584B000AF3B4600221A605A609A6086
:10118000DA60214B214A1A601F4B00225A601E4B25
:1011900000229A601C4B00221A611B4B00221A7617
:1011A000194B002283F82020174B0022DA62164BDD
:1011B000174A9A62144B0022DA60134B0122DA615B
:1011C000114B002283F830200F4B01225A610E4848
:1011D00002F0BCFE0346002B01D001F0ABFF01235F
:1011E0003B6001237B600023BB603B4619460648F9
:1011F00003F08EF80346002B01D001F09BFF00BFE7
:101200001037BD4680BD00BF4C02002000210140C8
:101210000100000F80B500AF124B134A1A60114B4A
:10122000124A5A600F4B00229A600E4B0022DA607D
:101230000C4B4FF480421A610A4B00225A61094B51
:1012400000229A61074B0022DA61064B00221A62E3
:10125000044803F0EFFD0346002B01D001F06AFFC4
:1012600000BF80BD9402002000540040A086010011
:1012700080B596B000AF07F1480300221A605A60AB
:101280009A60DA6007F1400300221A605A6007F1A1
:10129000240300221A605A609A60DA601A615A6167
:1012A0009A613B1D2022002118460BF08AFB3D4B22
:1012B0003D4A1A603B4BA0225A603A4B00229A608A
:1012C000384B4FF47A72DA60364B00221A61354B94
:1012D00000225A61334B80229A61324805F0C0F9EE
:1012E0000346002B01D001F025FF4FF48053BB646F
:1012F00007F1480319462B4806F034F80346002B43
:1013000001D001F017FF274805F0F9F90346002B3B
:1013100001D001F00FFF00233B6400237B6407F141
:10132000400319461F4806F08BFD0346002B01D0F1
:1013300001F000FF60237B620023BB620023FB629D
:1013400000237B630023BB630023FB6307F12403BB
:101350000C221946134805F043FF0346002B01D029
:1013600001F0E8FE00237B600023BB600023FB60EC
:1013700000233B6100237B614FF40053BB610023DA
:101380003B623B1D1946074806F0D6FD0346002B7D
:1013900001D001F0CFFE034802F022F900BF583718
:1013A000BD4680BDE80200200000014080B58CB041
:1013B00000AF07F10C032422002118460BF001FBBB
:1013C0003B1D00221A605A60214B4FF080421A6088
:1013D0001F4B00225A601E4B00229A601C4B4FF696
:1013E000FF72DA601A4B00221A61194B00229A61CF
:1013F0000323FB6000233B6101237B610023BB616E
:101400000A23FB6100233B6201237B620023BB6252
:101410000A23FB6207F10C0319460D4805F008FC8E
:101420000346002B01D001F085FE00237B600023E2
:10143000BB603B1D1946064806F002FD0346002B23
:1014400001D001F077FE00BF3037BD4680BD00BF40
:101450003003002080B58CB000AF07F10C032422CC
:10146000002118460BF0ADFA3B1D00221A605A60AD
:10147000204B214A1A601F4B00225A601D4B00224C
:101480009A601C4B4FF6FF72DA601A4B00221A6109
:10149000184B00229A610323FB6000233B61012368
:1014A0007B610023BB610A23FB6100233B620123B4
:1014B0007B620023BB620A23FB6207F10C0319461F
:1014C0000C4805F0B5FB0346002B01D001F032FEBD
:1014D00000237B600023BB603B1D1946054806F0D6
:1014E000AFFC0346002B01D001F024FE00BF3037D3
:1014F000BD4680BD780300200004004080B586B062
:1015000000AF07F1100300221A605A603B46002228
:101510001A605A609A60DA60204B214A1A601F4BA9
:101520000F225A601D4B00229A601C4B4FF6FF722F
:10153000DA601A4B00221A61184B00229A61174890
:1015400005F0FEF90346002B01D001F0F3FD002366
:101550003B6100237B6107F1100319460F4806F039
:101560006FFC0346002B01D001F0E4FD00233B603B
:1015700001237B600023BB600023FB603B4600220D
:101580001946064805F090FD0346002B01D001F0F6
:10159000D1FD00BF1837BD4680BD00BFC00300208D
:1015A0000008004080B596B000AF07F14803002264
:1015B0001A605A609A60DA6007F1400300221A60EC
:1015C0005A6007F1240300221A605A609A60DA60B8
:1015D0001A615A619A613B1D2022002118460BF0C6
:1015E000F0F9434B434A1A60414B00225A60404B8A
:1015F00000229A603E4B41F61F42DA603C4B0022CB
:101600001A613B4B00225A61394B00229A613848DB
:1016100005F026F80346002B01D001F08BFD4FF4B6
:101620008053BB6407F148031946314805F09AFE20
:101630000346002B01D001F07DFD2D4805F05FF839
:101640000346002B01D001F075FD00233B6400230D
:101650007B6407F140031946254806F0F1FB034679
:10166000002B01D001F066FD60237B620023BB628A
:101670000023FB6200233B6300237B630023BB63E7
:101680000023FB6307F1240300221946184805F0E4
:10169000A7FD0346002B01D001F04CFD07F1240308
:1016A00004221946124805F09BFD0346002B01D089
:1016B00001F040FD00237B600023BB600023FB6042
:1016C00000233B6100237B614FF40053BB61002387
:1016D0003B623B1D1946064806F02EFC0346002BD4
:1016E00001D001F027FD00BF5837BD4680BD00BFC7
:1016F000080400200004014080B500AF114B124ADD
:101700001A60104B4FF4E1325A600E4B00229A607F
:101710000C4B0022DA600B4B00221A61094B0C22A1
:101720005A61084B00229A61064B0022DA61054893
:1017300006F068FC0346002B01D001F0FBFC00BF63
:1017400080BD00BF500400200048004080B58CB030
:1017500000AF07F11C0300221A605A609A60DA6039
:101760001A610023BB615B4B1B6B5A4A43F01003A9
:101770001363584B1B6B03F01003BB61BB69002361
:101780007B61544B1B6B534A43F080031363514BF3
:101790001B6B03F080037B617B6900233B614D4B36
:1017A0001B6B4C4A43F0010313634A4B1B6B03F062
:1017B00001033B613B690023FB60464B1B6B454AC1
:1017C00043F002031363434B1B6B03F00203FB6004
:1017D000FB680023BB603F4B1B6B3E4A43F0080392
:1017E00013633C4B1B6B03F00803BB60BB68002317
:1017F0007B60384B1B6B374A43F004031363354B54
:101800001B6B03F004037B607B6800224FF4BC6118
:10181000314803F0DBFA00223C21304803F0D6FACD
:1018200000224FF480612E4803F0D0FA00224FF4DA
:1018300000512C4803F0CAFA4FF4BC63FB6101234A
:101840003B6200237B620023BB6207F11C03194645
:10185000214803F01FF93C23FB6101233B62002375
:101860007B620223BB6207F11C0319461B4803F08D
:1018700011F94FF48063FB6101233B6200237B621B
:101880000023BB6207F11C031946154803F002F957
:101890004FF48073FB614FF488133B6200237B623B
:1018A00007F11C0319460F4803F0F4F84FF40053F6
:1018B000FB6101233B6200237B620023BB6207F1D3
:1018C0001C031946074803F0E5F800BF3037BD4652
:1018D00080BD00BF003802400010024000000240FE
:1018E00000040240000C024080B582B000AF786076
:1018F00005220449044806F064FC00BF0837BD46D1
:1019000080BD00BFB40400205004002080B483B028
:1019100000AF0346FB80094B1B6800225A6200BFE0
:10192000064B1B685A6AFB889A42F9D300BF00BF76
:101930000C37BD465DF8047B704700BFC003002034
:1019400080B582B000AF78607B681B7F012B40F0D0
:101950008A80494B1B68002B1BD10021786805F059
:10196000C9FD03461A46454B1A60434B01221A60D3
:101970007B681B681A6A7B681B6822F00A021A627D
:101980007B681B681A6A7B681B6842F002021A6255
:1019900069E0394B1B68012B65D10021786805F09F
:1019A000A9FD03461A46364B1A607B681B68002265
:1019B0005A62334B1A68314B1B689A420ADD304B2E
:1019C0001B689AB22D4B1B689BB2D31A9AB22D4B4F
:1019D0001A8011E0294B1A68294B1B689A420BDDCB
:1019E000274B1B689AB2254B1B689BB2D31A9BB23C
:1019F000013B9AB2234B1A80224B1B881846FEF7F4
:101A000091FD1BA3D3E90023FEF7F6FD02460B462A
:101A1000104619464FF000024FF08043FEF716FFC4
:101A200002460B4610461946FFF7BEF803469AB227
:101A3000154B1A80104B00221A607B681B681A6ACB
:101A40007B681B6822F00A021A627B681A687B684E
:101A50001B68126A1A620D4B1B68DA680B4B1B6815
:101A600022F00202DA6000BF0837BD4680BD00BF29
:101A7000006F8104C58FA13F0C05002010050020D8
:101A800014050020180500201A050020C0030020BE
:101A900080B500AF01224FF400510B4803F096F9D6
:101AA0000A20FFF733FF00224FF40051064803F0ED
:101AB0008DF9064B1B68DA68044B1B6842F0020282
:101AC000DA6000BF80BD00BF000C0240C0030020F0
:101AD00080B582B000AF87ED000B31A3D3E90023BE
:101AE000D7E90001FEF788FD02460B46C7E900234F
:101AF000234B95221A804FF4967007F00BFC214B74
:101B000000221A60204B00221A60204B204A1A60E3
:101B1000204B1F4A1A60204B1D4A1A601F4B1C4A5B
:101B20001A601D4B1B681846FEF7FCFCD7E9002322
:101B3000FEF7ACFB02460B4610461946FFF70CF8C1
:101B40000346154A1360154B1B681846FEF7EAFC5E
:101B5000D7E90023FEF79AFB02460B4610461946CA
:101B6000FEF7FAFF03460D4A136000BF00F09AF932
:101B70000346002BFAD100BF00BF0837BD4680BD29
:101B800000000020D0040020CC040020D404002059
:101B9000F8240100D8040020DC040020E004002028
:101BA0000000000000C0524080B500AF054B01228C
:101BB0001A60054B95221A804FF4967007F0AAFB25
:101BC00000BF80BDD00400200000002080B582B09E
:101BD00000AF87ED000B134BE6221A804FF496708E
:101BE00007F098FB104B00221A60104B00221A607D
:101BF0000F4BD3E90001D7E90023FEF745FB02466E
:101C00000B460B49C1E9002300BF00F04BF9034626
:101C1000002BFAD1034B95221A8000BF0837BD462E
:101C200080BD00BF00000020D0040020CC040020B4
:101C3000E804002080B582B000AF87ED000B134BA5
:101C40006A221A804FF4967007F064FB104B002252
:101C50001A60104B00221A600F4BD3E90001D7E93C
:101C60000023FEF713FB02460B460B49C1E9002394
:101C700000BF00F017F90346002BFAD1034B952261
:101C80001A8000BF0837BD4680BD00BF000000209D
:101C9000D0040020CC040020E804002080B582B0ED
:101CA00000AF786039603B68002B18D07B68002B50
:101CB0000ADD01221021354803F088F80022202196
:101CC000324803F083F822E0002210212F4803F06D
:101CD0007DF8012220212D4803F078F817E07B6879
:101CE000002B0ADD01220821284803F06FF80022AA
:101CF0000421264803F06AF809E00022082123485D
:101D000003F064F801220421204803F05FF87B68A7
:101D1000002BB8BF5B427B607B68B3F5FA6F02DDD6
:101D200040F6B8332DE07B68B3F5FA7F02DD4FF45F
:101D3000FA6326E07B68C82B02DD4FF4AF6320E036
:101D40007B68642B02DD4FF47A731AE07B68032B07
:101D500007DD0F4B1B6801330D4A13604FF4FA7314
:101D60000FE07B68002B06DD094B1B680133084A36
:101D70001360002305E0064B1B680133044A13601F
:101D8000002318460837BD4680BD00BF0000024052
:101D9000CC04002080B586B000AF87ED020B7860E0
:101DA0004FF000023C4BD7E90201FEF725FC02464A
:101DB0000B4610461946FEF7CFFE03467B617B6853
:101DC000002B18D07B69002B0ADD0122102133483B
:101DD00002F0FCFF00222021304802F0F7FF22E051
:101DE000002210212D4802F0F1FF012220212B4872
:101DF00002F0ECFF17E07B69002B0ADA01220821D0
:101E0000264802F0E3FF00220421244802F0DEFF0E
:101E100009E000220821214802F0D8FF0122042114
:101E20001E4802F0D3FF7B69002BB8BF5B427B6189
:101E30007B69B3F5967F02DD40F6B83328E07B6915
:101E4000C82B02DD4FF4FA6322E07B69962B02DD9A
:101E50004FF4C8631CE07B69642B02DD4FF4AF6371
:101E600016E07B690A2B02DD4FF47A7310E07B6980
:101E7000022B07DD0A4B1B680133094A13604FF43C
:101E8000167305E0064B1B680133054A13600023F7
:101E900018461837BD4680BD0000244000000240AF
:101EA000CC04002080B500AF104B1B68142B1ADD4A
:101EB0000F4B01221A600F4B00221A800D4B1A881B
:101EC0000D4B1A800D4B1B680D4A13600D4B1B68A0
:101ED0000D4A1360054B00221A604FF4967007F00C
:101EE00019FA002300E00123184680BDCC0400202D
:101EF000D0040020C8040020CA040020D804002018
:101F0000E0040020D4040020DC04002080B584B06C
:101F100002AF03463960FB710E4AFB7913700E4B1A
:101F20001B785B0099B20A2300930123094A0B48EE
:101F300003F0C4F8084B1B785B0099B2142300939C
:101F400002233A68054803F0B7F900BF0837BD46D9
:101F500080BD00BFF8040020020000209402002091
:101F600080B584B002AF03460A46FB711346BB71CD
:101F70000A4AFB791370094ABB795370084B1B78E6
:101F80005B0099B2142300930223044A054803F02E
:101F900095F800BF0837BD4680BD00BFF80400209B
:101FA000020000209402002080B500AF002106202E
:101FB000FFF7D6FF0A2007F0ADF980210320FFF7D5
:101FC000CFFF0A2007F0A6F907210720FFF7C8FF77
:101FD0000A2007F09FF901210620FFF7C1FF0A2020
:101FE00007F098F920217F20FFF7BAFF0A2007F0B9
:101FF00091F92F210120FFF7B3FF0A2007F08AF99A
:1020000000210020FFF7ACFF0A2007F083F9002130
:102010007F20FFF7A5FF0A2007F07CF900210720A9
:10202000FFF79EFF0A2007F075F900BF80BD000092
:1020300080B500AF094801F0CDFF0A21074802F042
:10204000CEF8064802F056F903469AB2044B1A80BD
:10205000024802F091F800BF80BD00BF04020020DA
:102060002C05002080B500AF094801F0B3FF0A211C
:10207000074802F0B4F8064802F03CF903469AB269
:10208000044B1A80024802F077F800BF80BD00BF01
:102090004C0200202E05002080B582B000AF786091
:1020A0004FF48061044802F0AAFE4FF4FA6007F092
:1020B00031F900BFF4E700BF00100240000000004B
:1020C00080B586B000AF7860AB4B00221A80AB4B76
:1020D00000221A8000237B610021A94804F068FBDC
:1020E0000421A74804F064FB0C21A64804F060FB1F
:1020F000A44B1B6895221A6401221021A24802F009
:1021000065FE00222021A04802F060FE0122082185
:102110009D4802F05BFE002204219B4802F056FE1F
:102120004FF47A7007F0F6F8984B1A88954B1B68B5
:102130001A64974BD3E90001964BD3E90023FEF7CD
:10214000A3F802460B46C7E90223904B1B887E2B5F
:102150004CD8012097ED020BFFF71CFE03461846F2
:10216000FEF7E0F980A3D3E90023FEF745FA024623
:102170000B4610461946FEF717FD03469AB27E4BF2
:102180001A807D4B1B881846FEF7CCF978A3D3E95B
:102190000023FEF731FA02460B4610461946FEF7B9
:1021A00003FD03469AB2754B1A804FF000024FF0C0
:1021B0000003D7E90201FEF7AFFC0346002B0AD06B
:1021C00001220821704802F001FE002204216E481D
:1021D00002F0FCFD4FE1002208216B4802F0F6FD01
:1021E00001220421684802F0F1FD44E1674B1B889D
:1021F000BD2B3DD9002097ED020BFFF7CBFD034629
:102200009AB25E4B1A805D4B1B881846FEF78AF91E
:1022100057A3D3E90023FEF7EFF902460B46104619
:102220001946FEF7C1FC03469AB2534B1A804FF091
:1022300000024FF00003D7E90201FEF74FFC03460E
:10224000002B0AD0012210214F4802F0BFFD0022CE
:1022500020214D4802F0BAFD0DE1002210214A482C
:1022600002F0B4FD01222021474802F0AFFD02E157
:10227000494B1A68494B1B68D31A00211846FFF7CF
:102280000DFD03461846FEF74DF937A3D3E90023A9
:10229000FEF7B2F902460B4610461946FEF784FCDB
:1022A00003469AB2344B1A803B4B1A683B4B1B686F
:1022B000D31A83EAE372A2EBE372394B1968394B04
:1022C0001B68CB1A002BB8BF5B429A4203DD7B69C7
:1022D00001337B6102E07B69013B7B612E4B1A6815
:1022E0002E4B1B68D31A13F1630F08DB2A4B1A68B5
:1022F0002A4B1B68D31A632B01DC00237B61284B1C
:102300001A68284B1B68D31A01211846FFF7C6FC30
:1023100003469AB27B699BB213449AB2174B1A8058
:102320001D4B1A681D4B1B68D31A002B64DA4FF043
:1023300000021D4BD7E90201FEF7EEFB0346002B1E
:1023400003D0124BA8221A8095E04FF00002174BE1
:10235000D7E90201FEF7C2FB0346002B28D00B4B46
:1023600082221A8087E000BFF4FDD478E926F13F8D
:10237000E17A14AE47E1E23FC8040020CA0400201D
:1023800008040020E80200200000024000000020B5
:10239000E8040020F0040020E0040020D80400201D
:1023A000DC040020D404002000001440000014C00D
:1023B0004FF00002484BD7E90201FEF71DF9024633
:1023C0000B46104619464FF00002444BFEF73EFA0A
:1023D00002460B46104619463DA3D3E90023FDF7FC
:1023E00055FF02460B4610461946FEF7DDFB034635
:1023F0009AB23B4B1A803EE04FF00002374BD7E9D0
:102400000201FEF789FB0346002B03D0344B8222E6
:102410001A8030E04FF00002324BD7E90201FEF79C
:102420005DFB0346002B03D02D4BA8221A8022E02F
:102430004FF000022C4BD7E90201FEF7DDF802460F
:102440000B46104619464FF00002244BFEF7FEF9EA
:1024500002460B46104619461DA3D3E90023FDF79B
:1024600015FF02460B4610461946FEF79DFB034634
:102470009AB21B4B1A801D4B1B68002B0ED01C4BB5
:1024800000221A801A4B1A881A4B1A801A4B1B68A2
:102490001A4A13601A4B1B681A4A1360154B1A88A4
:1024A000194B1B685A63124B1A88174B1B689A63A7
:1024B000012006F02FFF154B1B68B3F57A7F7FF7DD
:1024C00033AE124B40F2E9321A602DE6AFF30080D2
:1024D0000000000000A062400000334000001440F3
:1024E00000000020000014C0000033C0D004002011
:1024F000C8040020CA040020D8040020E004002002
:10250000D4040020DC04002008040020CC040020B7
:10251000B0B5A0B004AF78600023BB6507F15C03E1
:1025200000221A605A609A60DA6000237B6407F127
:10253000480300221A605A609A60DA6000233B6305
:1025400007F1340300221A605A609A60DA600023AF
:10255000FB6107F1200300221A605A609A60DA607A
:102560000023BB6007F10C0300221A605A609A60D6
:10257000DA604A4B1B881A4607F158034849184647
:102580000AF0BCF907F158031A460A21002001F0AD
:1025900089FB444BD3E90045424BD3E90023104665
:1025A0001946FEF7D9FA03461846FDF7BBFF024667
:1025B0000B4620462946FDF767FE02460B461046AD
:1025C00019464FF00002384BFEF716F802460B464C
:1025D00010461946FEF7C0FA0346002BB8BF5B420F
:1025E000FB66304BD3E9002310461946FEF7B4FAD8
:1025F000024607F14400FB6E2C490AF07FF907F10F
:1026000044031A461421002001F04CFB284B1B8880
:102610001A46284B1B8807F1300027490AF06EF94B
:1026200007F130031A461E21002001F03BFB234B2B
:102630001B881A46224B1B8807F11C0021490AF00F
:102640005DF907F11C031A462821002001F02AFB3E
:102650001D4B1B781C461C4B5B781D461A4B9B7808
:102660001A46194BDB781946174B1B7907F10800FE
:102670000293019100922B46224614490AF03EF93A
:1026800007F108031A463221002001F00BFB01F08C
:1026900095F9642006F03EFE00BF6AE71A050020A7
:1026A00084EC0008F004002000408F4094EC000807
:1026B0003805002024050020A4EC00082C0500208B
:1026C0002E050020B4EC0008B4040020C4EC00087F
:1026D000B0B58AB000AF7860FFF766FC00233B819D
:1026E00000237B8100237B624FF000024FF0000348
:1026F000C7E906234FF000024FF00003C7E90423A7
:102700000023FB6048E0322006F004FE07F10803D6
:1027100019463720FFF7FAFB3B7A1B021AB27B7A85
:102720001BB213437B81B7F90A301846FDF7FAFE56
:1027300004460D4601F0DAFB02467B6AD31A1846BE
:10274000FDF7E0FE45A3D3E90023FEF77FF802463C
:102750000B4620462946FDF74FFF02460B46D7E9B8
:102760000401FDF793FD02460B46C7E90423B7F9C0
:102770000A301846FDF7D6FE02460B46D7E9060199
:10278000FDF784FD02460B46C7E9062301F0AEFBC8
:102790007862FB680133FB60FB68632BB3DDF8688C
:1027A000FDF7C0FE02460B46D7E90601FEF74EF8DC
:1027B00002460B46C7E9062301F098FB78626420C5
:1027C00006F0A8FD07F1080319463720FFF79EFB26
:1027D0003B7A1B021AB27B7A1BB213437B81B7F997
:1027E0000A301846FDF79EFED7E90623FDF74CFD9B
:1027F00002460B4614461D4601F078FB02467B6AF2
:10280000D31A1846FDF77EFE14A3D3E90023FEF782
:102810001DF802460B4620462946FDF7EDFE02460E
:102820000B46104619460C4BD3E90023FDF72EFD4D
:1028300002460B460849C1E90023B7F90A30FA6895
:10284000D31AFB6001F052FB7862FB680133FB6036
:1028500000BFB4E7AFF30080F004002000000000E8
:102860000004D04080B582B000AF786000210C48F1
:1028700004F0B6F8FFF70CF90A4B1A880A4B1B88CC
:102880009A4208D8094B1B68012B04D1074B002240
:102890001A60FFF789F9642006F03CFDEAE700BF03
:1028A000C00300201A050020040000201C050020A1
:1028B00080B584B000AF78604123FB738E4B452216
:1028C0001A708D4B4D225A708B4B50229A708A4B46
:1028D0005422DA70884B59221A71884B00221A60F0
:1028E000854B1B78542B07D0834B1B78492B03D087
:1028F000814B1B78582B07D17F4B5B78522B25D00F
:102900007D4B5B784C2B21D07B4B1B78532B14D009
:10291000794B1B78552B10D0774B1B78592B0CD04B
:10292000754B1B78562B08D0734B1B78522B04D059
:10293000714B1B784C2B40F03C826F4B5B78462BE5
:1029400004D06D4B5B78422B40F033826A4B9B780E
:10295000303B642202FB03F1674BDB78A3F13002CA
:1029600013469B0013445B00CA18634B1B79303B32
:102970001344624A1360604B5B78422B04D15F4B77
:102980001B685B425D4A13604FF4967006F0C2FC10
:10299000594B1B78493B102B00F20B8201A252F8D5
:1029A00023F000BF2B2A0008B32D0008B32D000828
:1029B000712D0008B32D0008B32D0008B32D0008B9
:1029C000B32D0008B32D0008F12C0008E9290008F8
:1029D000192C0008A32A0008972C0008B32D000822
:1029E000212B0008A92B0008444B1B681846FDF753
:1029F00099FD02460B4643EC102BFFF769F8404B5C
:102A000001221A603C4B44221A703B4B4F225A70F1
:102A1000394B4E229A70384B4522DA70364B2122C0
:102A20001A71642006F076FCC3E1364B01221A606D
:102A3000314B5B784C2B07D1334B1B88A3F2F3133C
:102A4000324A1288934216DC2B4B5B78522B07D10B
:102A50002D4B1B88A3F2F3132D4A128893420ADCF4
:102A6000264B1B681846FDF75DFD02460B4643ECFE
:102A7000102BFFF72DF8224B01221A601E4B442227
:102A80001A701D4B4F225A701B4B4E229A701A4BD4
:102A90004522DA70184B21221A71642006F03AFCA4
:102AA00087E11C4B01221A601B4B1A881B4B1B88A9
:102AB0009A420AD9114B1B681846FDF733FD0246AE
:102AC0000B4643EC102BFFF703F80D4B01221A6065
:102AD000094B44221A70084B4F225A70064B4E2263
:102AE0009A70054B4522DA70034B21221A7164203B
:102AF00006F010FC5DE100BFB4040020C404002017
:102B0000C004002030050020060000202C05002015
:102B10002E0500201C0500201A05002004000020BE
:102B2000844B01221A60844B01221A60834B5B782C
:102B30004C2B07D1824B1B88A3F2F313814A1288D6
:102B4000934216DC7D4B5B78522B07D17C4B1B8864
:102B5000A3F2F3137C4A128893420ADC7B4B1B6876
:102B60001846FDF7DFFC02460B4643EC102BFEF740
:102B7000AFFF774B1B68184607F0BEFB754B012271
:102B80001A606E4B44221A706C4B4F225A706B4B7A
:102B90004E229A70694B4522DA70684B21221A71D5
:102BA000642006F0B7FB04E16B4B01221A606B4B0B
:102BB00001221A606A4B1B881A466A4B1B88D31A7B
:102BC000092B02DC684B01221A60654B1A88654BA1
:102BD0001B889A420AD95D4B1B681846FDF7A2FC78
:102BE00002460B4643EC102BFEF772FF594B0122B5
:102BF0001A60524B44221A70504B4F225A704F4B5E
:102C00004E229A704D4B4522DA704C4B21221A719C
:102C1000642006F07FFBCCE0544B1B68012B07D1EE
:102C20004B4B1B68184607F00FFC504B00221A60F4
:102C3000464B1B685B421846FDF774FC02460B4688
:102C400043EC102BFEF744FF3C4B5B78522B04D136
:102C50003D4B1A883A4B1A8007E0384B5B784C2B77
:102C600003D1384B1A88364B1A803A4B01221A602E
:102C7000324B44221A70314B4F225A702F4B4E2246
:102C80009A702E4B4522DA702C4B21221A71642047
:102C900006F040FB8DE0334B19221A802F4B0122A6
:102CA0001A602F4B1A882F4B1B889A420AD9274B40
:102CB0001B681846FDF736FC02460B4643EC102B0A
:102CC000FEF706FF234B01221A601C4B44221A70A8
:102CD0001A4B4F225A70194B4E229A70174B4522AD
:102CE000DA70164B21221A71642006F013FB60E0A3
:102CF000164B1B681846FDF715FC02460B4643ECC5
:102D0000102BFEF763FF134B01221A600B4B44227A
:102D10001A700A4B4F225A70084B4E229A70074B7A
:102D20004522DA70054B21221A71642006F0F2FA6E
:102D30003FE000BF3405002030050020B40400202F
:102D4000060000202C0500202E050020C4040020D1
:102D5000B0040020C0040020200500201C05002035
:102D60001A0500200400002028050020080000208B
:102D70007F4B1B681846FDF7D5FB02460B4643EC1C
:102D8000102BFEF757FF7B4B01221A607A4B44222F
:102D90001A70794B4F225A70774B4E229A70764BAD
:102DA0004522DA70744B21221A71642006F0B2FABF
:102DB00000BF704B1B68012B40F0CF806F4B1B682E
:102DC000012B4FD1642006F0A5FA6D4B1B68A3F5CB
:102DD0009233F83B07EE903AB8EEE77A694B1B68FE
:102DE000A3F59233F83B07EE903AF8EEE77A77EEE8
:102DF000277AF0EE006A87EEA67AF1EE006AC7EE57
:102E0000267A9FED617AC7EE876A16EE900AFDF783
:102E10009BFB55A3D3E90023FDF7EEFB02460B46CF
:102E200010461946FDF7C0FE03469AB2574B1A806A
:102E3000524B00221A60554B1B881A46544955487C
:102E400009F05CFD4FF4967006F064FA5148FDF706
:102E50000FFA03469AB24FF6FF734E494E4805F0FB
:102E60001EF977E04D4B1B68012B67D1642006F0FB
:102E700051FA4B4B1B68012B13D14A4B1B88272B54
:102E800003D8494B00221A8007E0464B1A88474B6B
:102E90001B88D31A9AB2444B1A80414B00221A6005
:102EA00032E0374B1B68A3F59233F83B07EE903ABC
:102EB000B8EEE77A334B1B68A3F59233F83B07EE85
:102EC000903AF8EEE77A77EE277AF0EE006A87EE2E
:102ED000A67AF1EE006AC7EE267A9FED2B7AC7EE4E
:102EE000876A16EE900AFDF72FFB1FA3D3E9002394
:102EF000FDF782FB02460B4610461946FDF754FECD
:102F000003469AB2284B1A80244B00221A60264BA3
:102F10001B881A461E491F4809F0F0FC4FF49670B2
:102F200006F0F8F91B48FDF7A3F903469AB24FF6ED
:102F3000FF731849184805F0B2F80BE04FF496708B
:102F400006F0E8F907F10F014FF6FF73012212486E
:102F500005F0A5F8074B00221A60642006F0DAF9A4
:102F6000BBE400BFAFF30080A46477349C6B3440B3
:102F7000C4040020C0040020B40400203405002054
:102F8000D8040020D40400200080BD433805002070
:102F9000D4EC0008BC0400205004002020050020D0
:102FA000280500201A050020240500200400002028
:102FB00080B58AB000AF786001237B620123FB619A
:102FC0003C21344803F0DAFE3C21334803F0D6FEBE
:102FD00000F08CFF786100F089FF02467B69D31A0C
:102FE0000A2B52D92B4B1B685B6A3B612A4B1B682F
:102FF0005B6AFB60FB68B3F5FA4F06DD01237B6279
:10300000FB68C3F580333B6204E04FF0FF337B6223
:10301000FB683B627B6A012B06D1204B1A683B6A36
:10302000D31A1E4A136005E01C4B1A683B6A13440E
:103030001A4A13603B69B3F5FA4F06DD0123FB61C1
:103040003B69C3F58033BB6104E04FF0FF33FB61A4
:103050003B69BB61FB69012B06D1114B1A68BB6947
:1030600013440F4A136005E00D4B1A68BB69D31A6D
:103070000B4A1360084B1B6800225A62054B1B6801
:1030800000225A6200F032FF7861322006F042F9E5
:10309000A1E700BF3003002078030020D404002003
:1030A000D804002080B582B000AF78601A4B1B684E
:1030B000012B04D1194B1B68184607F01DF9FEF7C8
:1030C000B7FFFEF7CFFF164B5B784C2B0BD1154BA0
:1030D0001B88A3F2F313144A1288934203DD134BA7
:1030E0001B68012B0FD00E4B5B78522B10D10D4B70
:1030F0001B88A3F2F3130E4A1288934208DD0B4B90
:103100001B68012B04D1094B00221A60FEF74CFD0D
:10311000642006F0FFF8C9E708000020B004002092
:10312000B4040020060000202C05002030050020FB
:103130002E05002080B400AF72B600BF00BFFDE7CF
:1031400080B582B000AF00237B60164B5B6C154AE4
:1031500043F480435364134B5B6C03F480437B6004
:103160007B6800233B600F4B1B6C0E4A43F080537F
:1031700013640C4B1B6C03F080533B603B680022D4
:103180000F216FF0010001F0BCFB0022052105209A
:1031900001F0B7FB052001F0D0FB00BF0837BD46AA
:1031A00080BD00BF0038024080B58CB000AF7860B1
:1031B00007F11C0300221A605A609A60DA601A61F3
:1031C0007B681B682E4A934228D10023BB612D4B9C
:1031D0005B6C2C4A43F4807353642A4B5B6C03F49E
:1031E0008073BB61BB6900237B61264B1B6B254A47
:1031F00043F001031363234B1B6B03F001037B615B
:103200007B690123FB6103233B6200237B6207F19F
:103210001C0319461C4801F03DFC2CE07B681B6830
:103220001A4A934227D100233B61164B5B6C154A27
:1032300043F400735364134B5B6C03F400733B6102
:103240003B690023FB600F4B1B6B0E4A43F00103ED
:1032500013630C4B1B6B03F00103FB60FB68022341
:10326000FB6103233B6200237B6207F11C031946C9
:10327000054801F00FFC00BF3037BD4680BD00BFE0
:1032800000200140003802400000024000210140BF
:1032900080B58AB000AF786007F1140300221A608D
:1032A0005A609A60DA601A617B681B68194A934217
:1032B0002CD100233B61184B1B6B174A43F00203D0
:1032C0001363154B1B6B03F002033B613B694FF427
:1032D00040737B611223BB610023FB6103233B62CC
:1032E00004237B6207F1140319460C4801F0D2FB5A
:1032F0000023FB60084B1B6C074A43F40013136464
:10330000054B1B6C03F40013FB60FB6800BF283700
:10331000BD4680BD00540040003802400004024019
:1033200080B58AB000AF786007F1140300221A60FC
:103330005A609A60DA601A617B681B682F4A934270
:103340001ED100233B612E4B5B6C2D4A43F00103E1
:1033500053642B4B5B6C03F001033B613B69002220
:103360000521182001F0CDFA182001F0E6FA00221C
:103370000521192001F0C5FA192001F0DEFA38E024
:103380007B681B681F4A934233D10023FB601C4BB0
:103390005B6C1B4A43F002035364194B5B6C03F0F4
:1033A0000203FB60FB680023BB60154B1B6B144AD8
:1033B00043F004031363124B1B6B03F00403BB6065
:1033C000BB68C0237B610223BB610023FB61002338
:1033D0003B6203237B6207F1140319460A4801F09C
:1033E00059FB002205212D2001F08BFA2D2001F040
:1033F000A4FA00BF2837BD4680BD00BF00000140D1
:1034000000380240000401400008024080B58CB042
:1034100000AF786007F11C0300221A605A609A60BE
:10342000DA601A617B681B68B3F1804F4BD10023CF
:10343000BB613F4B1B6C3E4A43F0010313643C4BA2
:103440001B6C03F00103BB61BB6900237B61384B3C
:103450001B6B374A43F001031363354B1B6B03F0BF
:1034600001037B617B6900233B61314B1B6B304A5D
:1034700043F0020313632E4B1B6B03F002033B610B
:103480003B694FF40043FB6102233B6200237B62F4
:103490000023BB620123FB6207F11C031946254888
:1034A00001F0F8FA0823FB6102233B6200237B62F0
:1034B0000023BB620123FB6207F11C0319461E486F
:1034C00001F0E8FA30E07B681B681C4A93422BD17C
:1034D0000023FB60164B1B6C154A43F00203136478
:1034E000134B1B6C03F00203FB60FB680023BB6003
:1034F0000F4B1B6B0E4A43F0010313630C4B1B6B0A
:1035000003F00103BB60BB68C023FB6102233B6285
:1035100000237B620023BB620223FB6207F11C03D2
:103520001946044801F0B6FA00BF3037BD4680BDE9
:103530000038024000000240000402400004004045
:1035400080B58AB000AF786007F1140300221A60DA
:103550005A609A60DA601A617B681B681D4A934260
:1035600034D100233B611C4B1B6C1B4A43F004030A
:103570001364194B1B6C03F004033B613B6900238C
:10358000FB60154B1B6B144A43F008031363124B8B
:103590001B6B03F00803FB60FB684FF480537B61F7
:1035A0000223BB610023FB6100233B6202237B6299
:1035B00007F114031946094801F06CFA00220521AD
:1035C0001E2001F09EF91E2001F0B7F900BF283738
:1035D000BD4680BD0008004000380240000C02409B
:1035E00080B588B000AF786007F10C0300221A6044
:1035F0005A609A60DA601A617B681B68124A9342CB
:103600001ED10023BB60114B1B6B104A43F010030B
:1036100013630E4B1B6B03F01003BB60BB684FF4CE
:103620008043FB6002233B6100237B610023BB617D
:103630000123FB6107F10C031946054801F02AFA42
:1036400000BF2037BD4680BD000001400038024069
:103650000010024080B58AB000AF786007F1140313
:1036600000221A605A609A60DA601A617B681B68EF
:103670001D4A934234D100233B611C4B1B6C1B4AF7
:1036800043F480231364194B1B6C03F480233B61C8
:103690003B690023FB60154B1B6B144A43F004038A
:1036A0001363124B1B6B03F00403FB60FB684FF4C6
:1036B00040637B610223BB610023FB6103233B6208
:1036C00007237B6207F114031946094801F0E2F968
:1036D00000220521272001F014F9272001F02DF9FF
:1036E00000BF2837BD4680BD00480040003802407A
:1036F0000008024080B400AF00BFFDE780B400AF17
:1037000000BFFDE780B400AF00BFFDE780B400AFAD
:1037100000BFFDE780B400AF00BFFDE780B400AF9D
:1037200000BFBD465DF8047B704780B500AF00F078
:10373000C9FB07F04DFB0346012B01D008F044F90B
:1037400000BF80BD80B400AF00BFBD465DF8047B04
:103750007047000080B500AF024803F09DFB00BF3A
:1037600080BD00BFE802002080B500AF024803F032
:1037700093FB00BF80BD00BFE802002080B500AF12
:10378000024803F089FB00BF80BD00BFC0030020DA
:1037900080B500AF024804F045FD00BF80BD00BF0A
:1037A0005004002080B500AF024803F075FB00BF55
:1037B00080BD00BF0804002080B400AF012318467C
:1037C000BD465DF8047B704780B582B000AF78607D
:1037D000396009F09FF9034616221A604FF0FF3353
:1037E00018460837BD4680BD80B582B000AF78600E
:1037F0004FF0FF317868FFF7E7FF00BFFDE780B5C6
:1038000086B000AFF860B9607A6000237B610AE09F
:10381000AFF300800146BB685A1CBA60CAB21A7086
:103820007B6901337B617A697B689A42F0DB7B6854
:1038300018461837BD4680BD80B586B000AFF86029
:10384000B9607A6000237B6109E0BB685A1CBA60EA
:103850001B781846AFF300807B6901337B617A697E
:103860007B689A42F1DB7B6818461837BD4680BDFD
:1038700080B483B000AF78604FF0FF3318460C3748
:10388000BD465DF8047B704780B483B000AF7860BC
:1038900039603B684FF400525A60002318460C37D9
:1038A000BD465DF8047B704780B483B000AF78609C
:1038B000012318460C37BD465DF8047B704780B481
:1038C00085B000AFF860B9607A60002318461437FD
:1038D000BD465DF8047B704780B586B000AF786068
:1038E000144A154BD31A7B617B693B61134B1B68F0
:1038F000002B02D1114B124A1A60104B1A687B68D8
:1039000013443A699A4207D209F004F903460C229B
:103910001A604FF0FF3309E0084B1B68FB60074B50
:103920001A687B681344054A1360FB681846183709
:10393000BD4680BD00000220000400003C050020C0
:103940007854002080B400AF064BD3F88830054A85
:1039500043F47003C2F8883000BFBD465DF8047BB5
:10396000704700BF00ED00E0DFF834D00D480E498D
:103970000E4A002302E0D458C4500433C4188C42C9
:10398000F9D30B4A0B4C002301E013600432A2422E
:10399000FBD3FFF7D7FF09F0C3F8FDF79DFA704797
:1039A0000000022000000020E401002010FC0008BC
:1039B000E801002078540020FEE7000080B582B0C6
:1039C00000AF0023FB7126E0FB79503BDBB2002106
:1039D000184600F02BF80021002000F027F8002105
:1039E000102000F023F80023BB710DE0BA79FB79B9
:1039F0000D49D2000A4413441B780121184600F0F7
:103A000015F8BB790133BB7197F90630002BEDDA5D
:103A1000FB790133FB71FB79072BD5D900BF00BFC0
:103A20000837BD4680BD00BF4005002080B584B08A
:103A300000AF03460A46FB711346BB71BB79002BEE
:103A400006D001224FF480711C4801F0BFF905E057
:103A500000224FF48071194801F0B8F90023FB737C
:103A60001EE000222021154801F0B0F997F9073037
:103A7000002B05DA01224021104801F0A7F904E0EB
:103A8000002240210D4801F0A1F9012220210B481C
:103A900001F09CF9FB795B00FB71FB7B0133FB734D
:103AA000FB7B072BDDD901224FF48071034801F025
:103AB0008DF900BF1037BD4680BD00BF0010024029
:103AC00080B582B000AF0023FB7114E00023BB710E
:103AD0000AE0BA79FB790C49D2000A441344002267
:103AE0001A70BB790133BB7197F90630002BF0DAFD
:103AF000FB790133FB71FB79072BE7D9FFF75EFFF9
:103B000000BF0837BD4680BD4005002080B485B0A9
:103B100000AF0346FB710B46BB7113467B7100235C
:103B2000FB7397F90730002B41DBBB793F2B3ED865
:103B3000BB79DB08DBB2C3F10703BB73BB7903F0CE
:103B400007037B737B7BC3F10703012202FA03F3B4
:103B5000FB737B79002B12D0FA79BB7B1749D2001B
:103B60000A4413441878FA79BB7BF97B0143C8B245
:103B70001249D2000A44134402461A7018E0FA7936
:103B8000BB7B0E49D2000A4413441B785AB297F902
:103B90000F30DB435BB2134059B2FA79BB7BC8B23A
:103BA0000649D2000A44134402461A7000E000BFDE
:103BB0001437BD465DF8047B704700BF4005002008
:103BC00090B585B000AF0446084611461A46234614
:103BD000FB710346BB710B467B7113463B71BB798E
:103BE0003B737B79203B7B710023BB734DE03B79BA
:103BF0000C2B0BD17A79B97B284813465B00134410
:103C00009B0003440B441B78FB7307E07A79BB7B72
:103C1000234912010A4413441B78FB7300237B736E
:103C20002DE097F90F30002B07DA97F82020B979AB
:103C3000FB791846FFF76AFF0CE097F82030002B5D
:103C40000CBF01230023DBB21A46B979FB79184671
:103C5000FFF75CFFFB7B5B00FB73BB790133BB7140
:103C6000BA793B7BD21A3B799A4205D13B7BBB7137
:103C7000FB790133FB7105E07B7B01337B737B7B3D
:103C8000072BCED9BB7B0133BB73BA7B3B799A42FE
:103C9000ADD300BF00BF1437BD4690BD2CEE000869
:103CA000A0F2000880B584B002AF03463A60FB7111
:103CB0000B46BB711FE0FB797A2B04D90023FB7103
:103CC000BB791033BB71BB793A2B05D90023FB714B
:103CD000FB79BB71FFF7F4FE3B681A78B979F87984
:103CE000012300930C23FFF76BFFFB790833FB7173
:103CF0003B6801333B603B681B78002BDBD100BF86
:103D000000BF0837BD4680BD80B500AF02F028F87F
:103D1000414B1B6F404A23F0010313673E4B1B6F5F
:103D20003D4A23F00403136702F02EF8002280219D
:103D30003A4801F04BF8642000F0E4F801228021B9
:103D4000364801F043F80021AE20FFF76FFE002156
:103D5000D520FFF76BFE00215020FFF767FE002102
:103D6000A820FFF763FE00213F20FFF75FFE002140
:103D7000D320FFF75BFE00210020FFF757FE002154
:103D80004020FFF753FE00218D20FFF74FFE00215A
:103D90001420FFF74BFE00212020FFF747FE0021F3
:103DA0000220FFF743FE0021A120FFF73FFE002184
:103DB000C020FFF73BFE0021DA20FFF737FE00218D
:103DC0001220FFF733FE00218120FFF72FFE002194
:103DD000EF20FFF72BFE0021D920FFF727FE00215F
:103DE000F120FFF723FE0021DB20FFF71FFE00215B
:103DF0003020FFF71BFE0021A420FFF717FE002153
:103E0000A620FFF713FE0021AF20FFF70FFEFFF7FC
:103E100057FE00BF80BD00BF0038024000100240C6
:103E200080B500AF0E4B1B680D4A43F4007313605E
:103E30000B4B1B680A4A43F480631360084B1B68F2
:103E4000074A43F480731360032000F04FFD0F20F6
:103E500000F008F8FFF774F90023184680BD00BF92
:103E6000003C024080B582B000AF7860124B1A6807
:103E7000124B1B7819464FF47A73B3FBF1F3B2FB84
:103E8000F3F3184600F067FD0346002B01D0012331
:103E90000EE07B680F2B0AD8002279684FF0FF30C4
:103EA00000F02FFD064A7B681360002300E0012329
:103EB00018460837BD4680BD0C00002014000020C5
:103EC0001000002080B400AF064B1B781A46064B4A
:103ED0001B681344044A136000BFBD465DF8047BB1
:103EE000704700BF140000204009002080B400AFDC
:103EF000034B1B681846BD465DF8047B704700BF46
:103F00004009002080B584B000AF7860FFF7EEFF75
:103F1000B8607B68FB60FB68B3F1FF3F05D00A4BDC
:103F20001B781A46FB681344FB6000BFFFF7DEFFF7
:103F30000246BB68D31AFA689A42F7D800BF00BF9E
:103F40001037BD4680BD00BF1400002080B584B08E
:103F500000AF78600023FB737B68002B01D1012345
:103F600033E07B681B6C002B09D17868FFF71CF9E4
:103F70007B6800225A647B68002283F83C207B68BF
:103F80001B6C03F01003002B18D17B681B6C23F40F
:103F9000885323F0020343F002027B681A647868B6
:103FA00000F0D8FA7B6800225A647B681B6C23F00F
:103FB000030343F001027B681A6401E00123FB73F1
:103FC0007B68002283F83C20FB7B18461037BD46F7
:103FD00080BD000080B485B000AF78600023BB6076
:103FE0007B6893F83C30012B01D10223B2E07B685F
:103FF000012283F83C207B681B689B6803F0010367
:10400000012B18D07B681B689A687B681B6842F09C
:1040100001029A60524B1B68524AA2FB03239A0C7E
:1040200013465B001344BB6002E0BB68013BBB600E
:10403000BB68002BF9D17B681B689B6803F0010308
:10404000012B7AD17B681B6C23F4E06323F001031E
:1040500043F480727B681A647B681B685B6803F4B6
:104060008063002B07D07B681B6C23F4405343F420
:1040700080527B681A647B681B6C03F48053B3F531
:10408000805F06D17B685B6C23F006027B685A6414
:1040900002E07B6800225A647B68002283F83C209F
:1040A000314BFB607B681B686FF022021A60FB6873
:1040B0005B6803F01F03002B2AD17B681B682B4A27
:1040C000934215D07B681B68294A934205D1264B41
:1040D0005B6803F01F03002B0AD07B681B68254A2E
:1040E000934236D1204B5B6803F01003002B30D194
:1040F0007B681B689B6803F04053002B29D17B68C9
:104100001B689A687B681B6842F080429A6020E0D6
:104110007B681B68154A93421BD17B681B689B68B0
:1041200003F04053002B14D17B681B689A687B68AE
:104130001B6842F080429A600BE07B681B6C43F086
:1041400010027B681A647B685B6C43F001027B6839
:104150005A64002318461437BD465DF8047B704747
:104160000C00002083DE1B4300230140002001409F
:10417000002101400022014080B483B000AF78608C
:104180007B6893F83C30012B01D1022321E07B684E
:10419000012283F83C207B681B689A687B681B6857
:1041A00022F001029A607B681B689B6803F00103A0
:1041B000002B09D17B681B6C23F4885323F0010387
:1041C00043F001027B681A647B68002283F83C207C
:1041D000002318460C37BD465DF8047B704780B558
:1041E00084B000AF786039600023FB607B681B6897
:1041F0009B6803F48063B3F5806F13D17B681B6801
:104200009B6803F48073B3F5807F0BD17B681B6CD4
:1042100043F020027B681A647B68002283F83C200C
:10422000012363E0FFF762FEF86021E03B68B3F131
:10423000FF3F1DD03B68002B07D0FFF757FE02461B
:10424000FB68D31A3A689A4212D27B681B681B68D3
:1042500003F00203022B0BD07B681B6C43F00402BB
:104260007B681A647B68002283F83C2003233DE0CE
:104270007B681B681B6803F00203022BD6D17B68A6
:104280001B686FF012021A607B681B6C43F40072AB
:104290007B681A647B681B689B6803F04053002BA3
:1042A00023D17B681B7E002B1FD17B681B68DB6AD8
:1042B00003F47003002B06D07B681B689B6803F433
:1042C0008063002B11D17B681B6C23F480727B68A8
:1042D0001A647B681B6C03F48053002B05D17B6848
:1042E0001B6C43F001027B681A64002318461037E8
:1042F000BD4680BD80B483B000AF78607B681B682A
:10430000DB6C18460C37BD465DF8047B7047000037
:1043100080B485B000AF786039600023BB607B68F3
:1043200093F83C30012B01D1022305E17B68012287
:1043300083F83C203B681B68092B25D97B681B68E8
:10434000D9683B681B689BB21A4613465B0013444E
:104350001E3B072202FA03F3DA437B681B680A401C
:10436000DA607B681B68D9683B689A683B681B68A1
:104370009BB2184603465B0003441E3B9A407B6891
:104380001B680A43DA6022E07B681B6819693B6896
:104390001B689BB21A4613465B001344072202FABD
:1043A00003F3DA437B681B680A401A617B681B6869
:1043B00019693B689A683B681B689BB218460346BC
:1043C0005B0003449A407B681B680A431A613B68A0
:1043D0005B68062B24D87B681B68596B3B685A685E
:1043E00013469B001344053B1F2202FA03F3DA43F2
:1043F0007B681B680A405A637B681B68596B3B6883
:104400001B689BB218463B685A6813469B001344CE
:10441000053B00FA03F27B681B680A435A634CE0D1
:104420003B685B680C2B24D87B681B68196B3B6866
:104430005A6813469B001344233B1F2202FA03F3DE
:10444000DA437B681B680A401A637B681B68196B38
:104450003B681B689BB218463B685A6813469B0032
:104460001344233B00FA03F27B681B680A431A6378
:1044700023E07B681B68D96A3B685A6813469B0037
:104480001344413B1F2202FA03F3DA437B681B68A3
:104490000A40DA627B681B68D96A3B681B689BB27A
:1044A00018463B685A6813469B001344413B00FA88
:1044B00003F27B681B680A43DA62224BFB607B686D
:1044C0001B68214A934209D13B681B68122B05D116
:1044D000FB685B6843F48002FB685A607B681B687A
:1044E000194A934223D13B681B68102B03D03B68C9
:1044F0001B68112B1BD1FB685B6843F40002FB684F
:104500005A603B681B68102B11D1104B1B68104A76
:10451000A2FB03239A0C13469B0013445B00BB6071
:1045200002E0BB68013BBB60BB68002BF9D17B6834
:10453000002283F83C20002318461437BD465DF85E
:10454000047B704700230140002001400C00002044
:1045500083DE1B4380B485B000AF7860794BFB608D
:10456000FB685B6823F44032FB685A60FB685A685A
:104570007B685B681A43FB685A607B681B685A68F3
:104580007B681B6822F480725A607B681B685968DC
:104590007B681B691A027B681B680A435A607B6848
:1045A0001B685A687B681B6822F040725A607B68FF
:1045B0001B6859687B689A687B681B680A435A6065
:1045C0007B681B689A687B681B6822F400629A60AB
:1045D0007B681B6899687B68DA687B681B680A439C
:1045E0009A607B689B6A584A934222D07B681B681A
:1045F0009A687B681B6822F070629A607B681B680F
:1046000099687B689A6A7B681B680A439A607B6832
:104610001B689A687B681B6822F040529A607B682E
:104620001B6899687B68DA6A7B681B680A439A6032
:104630000FE07B681B689A687B681B6822F07062D9
:104640009A607B681B689A687B681B6822F04052FE
:104650009A607B681B689A687B681B6822F002027C
:104660009A607B681B6899687B681B7E5A007B6830
:104670001B680A439A607B6893F82030002B1BD09C
:104680007B681B685A687B681B6842F400625A604A
:104690007B681B685A687B681B6822F460425A601A
:1046A0007B681B6859687B685B6A013B5A037B68BF
:1046B0001B680A435A6007E07B681B685A687B687E
:1046C0001B6822F400625A607B681B68DA6A7B68A8
:1046D0001B6822F47002DA627B681B68D96A7B6807
:1046E000DB69013B1A057B681B680A43DA627B6859
:1046F0001B689A687B681B6822F400729A607B686A
:104700001B6899687B6893F830305A027B681B6895
:104710000A439A607B681B689A687B681B6822F46E
:1047200080629A607B681B6899687B685B699A0203
:104730007B681B680A439A6000BF1437BD465DF86A
:10474000047B7047002301400100000F80B485B056
:1047500000AF78607B6803F00703FB600C4BDB68FD
:10476000BB60BA684FF6FF031340BB60FB681A02D8
:10477000BB68134343F0BF6343F40033BB60044A98
:10478000BB68D36000BF1437BD465DF8047B70473B
:1047900000ED00E080B400AF044BDB681B0A03F0BF
:1047A00007031846BD465DF8047B704700ED00E046
:1047B00080B483B000AF0346FB7197F90730002B3C
:1047C0000BDBFB7903F01F02074997F907305B0900
:1047D000012000FA02F241F8232000BF0C37BD4649
:1047E0005DF8047B704700BF00E100E080B483B057
:1047F00000AF03463960FB7197F90730002B0ADBE5
:104800003B68DAB20C4997F907301201D2B20B4477
:1048100083F800230AE03B68DAB20849FB7903F029
:104820000F03043B1201D2B20B441A7600BF0C37BF
:10483000BD465DF8047B704700E100E000ED00E05C
:1048400080B489B000AFF860B9607A60FB6803F0AB
:104850000703FB61FB69C3F10703042B28BF042393
:10486000BB61FB690433062B02D9FB69033B00E003
:1048700000237B614FF0FF32BB6902FA03F3DA4396
:10488000BB681A407B699A404FF0FF317B6901FA9F
:1048900003F3D9437B680B40134318462437BD46C6
:1048A0005DF8047B7047000080B582B000AF78608F
:1048B0007B68013BB3F1807F01D301230FE00A4AFB
:1048C0007B68013B53600F214FF0FF30FFF78EFFF5
:1048D000054B00229A60044B07221A6000231846F9
:1048E0000837BD4680BD00BF10E000E080B582B053
:1048F00000AF78607868FFF729FF00BF0837BD4632
:1049000080BD80B586B000AF0346B9607A60FB73A6
:1049100000237B61FFF73EFF78617A68B9687869A8
:10492000FFF78EFF024697F90F3011461846FFF742
:104930005DFF00BF1837BD4680BD80B582B000AFB7
:104940000346FB7197F907301846FFF731FF00BFA8
:104950000837BD4680BD80B582B000AF786078680A
:10496000FFF7A2FF034618460837BD4680BD80B555
:1049700084B000AF78607B689B6DFB60FFF7B6FA90
:10498000B8607B6893F83530DBB2022B08D07B68C7
:1049900080225A657B68002283F83420012352E08C
:1049A0007B681B681A687B681B6822F016021A6015
:1049B0007B681B685A697B681B6822F080025A6119
:1049C0007B681B6C002B03D17B689B6C002B07D092
:1049D0007B681B681A687B681B6822F008021A60F3
:1049E0007B681B681A687B681B6822F001021A60EA
:1049F00013E0FFF77BFA0246BB68D31A052B0CD9EC
:104A00007B6820225A657B68032283F835207B6807
:104A1000002283F83420032315E07B681B681B68A1
:104A200003F00103002BE4D17B68DB6D3F229A4049
:104A3000FB689A607B68012283F835207B6800223E
:104A400083F83420002318461037BD4680BD80B45B
:104A500083B000AF78607B6893F83530DBB2022B0F
:104A600004D07B6880225A6501230CE07B68052214
:104A700083F835207B681B681A687B681B6822F006
:104A800001021A60002318460C37BD465DF8047B0E
:104A90007047000080B489B000AF786039600023AF
:104AA0007B6100233B610023BB610023FB616BE161
:104AB0000122FB6902FA03F37B613B681B687A6998
:104AC00013403B613A697B699A4240F05A813B68E6
:104AD0005B6803F00303012B05D03B685B6803F0C0
:104AE0000303022B30D17B689B68BB61FB695B00D1
:104AF000032202FA03F3DB43BA691340BB613B684C
:104B0000DA68FB695B0002FA03F3BA691343BB611D
:104B10007B68BA699A607B685B68BB610122FB694C
:104B200002FA03F3DB43BA691340BB613B685B687D
:104B30001B0903F00102FB6902FA03F3BA6913438C
:104B4000BB617B68BA695A603B685B6803F003032A
:104B5000032B17D07B68DB68BB61FB695B0003221A
:104B600002FA03F3DB43BA691340BB613B689A68FE
:104B7000FB695B0002FA03F3BA691343BB617B680C
:104B8000BA69DA603B685B6803F00303022B23D148
:104B9000FB69DA087B68083253F82230BB61FB6995
:104BA00003F007039B000F2202FA03F3DB43BA6909
:104BB0001340BB613B681A69FB6903F007039B0064
:104BC00002FA03F3BA691343BB61FB69DA087B6835
:104BD0000832B96943F822107B681B68BB61FB6926
:104BE0005B00032202FA03F3DB43BA691340BB61A3
:104BF0003B685B6803F00302FB695B0002FA03F3A6
:104C0000BA691343BB617B68BA691A603B685B6829
:104C100003F44033002B00F0B4800023FB60604BB2
:104C20005B6C5F4A43F4804353645D4B5B6C03F4FD
:104C30008043FB60FB685B4AFB699B08023352F8C8
:104C40002330BB61FB6903F003039B000F2202FAD0
:104C500003F3DB43BA691340BB617B68524A93425A
:104C60002BD07B68514A934225D07B68504A9342AF
:104C70001FD07B684F4A934219D07B684E4A9342BB
:104C800013D07B684D4A93420DD07B684C4A9342C7
:104C900007D07B684B4A934201D107230EE00823DB
:104CA0000CE006230AE0052308E0042306E00323C2
:104CB00004E0022302E0012300E00023FA6902F08D
:104CC000030292009340BA691343BB613549FB6903
:104CD0009B080233BA6941F823203B4B9B68BB61B8
:104CE0003B69DB43BA691340BB613B685B6803F413
:104CF0008013002B03D0BA693B691343BB61324A6E
:104D0000BB699360304BDB68BB613B69DB43BA69CD
:104D10001340BB613B685B6803F40013002B03D0B6
:104D2000BA693B691343BB61274ABB69D360264B11
:104D30005B68BB613B69DB43BA691340BB613B689D
:104D40005B6803F40033002B03D0BA693B6913435B
:104D5000BB611D4ABB6953601B4B1B68BB613B6950
:104D6000DB43BA691340BB613B685B6803F4803383
:104D7000002B03D0BA693B691343BB61124ABB697C
:104D80001360FB690133FB61FB690F2B7FF690AE6B
:104D900000BF00BF2437BD465DF8047B704700BFED
:104DA0000038024000380140000002400004024088
:104DB00000080240000C02400010024000140240B3
:104DC00000180240001C0240003C014080B483B047
:104DD00000AF78600B467B8013467B707B78002B9E
:104DE00003D07A887B689A6103E07B881A047B6829
:104DF0009A6100BF0C37BD465DF8047B704780B4F4
:104E000085B000AF78600B467B807B685B69FB6098
:104E10007A88FB6813401A04FB68D9437B880B40EF
:104E20001A437B689A6100BF1437BD465DF8047B66
:104E30007047000080B584B000AF78607B68002BBD
:104E400001D101232BE17B6893F83D30DBB2002BCD
:104E500006D17B68002283F83C207868FEF718FAB8
:104E60007B68242283F83D207B681B681A687B6876
:104E70001B6822F001021A607B681B681A687B6855
:104E80001B6842F400421A607B681B681A687B68E2
:104E90001B6822F400421A6001F0BAFBF8607B68DC
:104EA0005B68814A934207D8FB68804A934294BF6B
:104EB00001230023DBB206E0FB687D4A934294BFE6
:104EC00001230023DBB2002B01D00123E7E0FB68C4
:104ED000784AA2FB03239B0CBB607B681B685B6862
:104EE00023F03F017B681B68BA680A435A607B68FD
:104EF0001B681B6A23F03F017B685B686A4A934228
:104F000002D8BB68013309E0BB684FF4967202FB1C
:104F100003F3694AA2FB03239B0901337A681268F1
:104F20000B4313627B681B68DB6923F44F4222F05A
:104F3000FF027B685B685C498B4219D8FB68591E8D
:104F40007B685B685B00B1FBF3F3591C40F6FC73B4
:104F50000B40002B0AD0FB68591E7B685B685B0026
:104F6000B1FBF3F30133C3F30B0351E004234FE030
:104F70007B689B68002B11D1FB68581E7B685968C1
:104F80000B465B000B44B0FBF3F30133C3F30B039D
:104F9000002B0CBF01230023DBB212E0FB68581E7C
:104FA0007B6859680B469B000B4499000B44B0FB8F
:104FB000F3F30133C3F30B03002B0CBF01230023D6
:104FC000DBB2002B01D0012322E07B689B68002B21
:104FD0000ED1FB68581E7B6859680B465B000B447A
:104FE000B0FBF3F30133C3F30B0343F400430FE0CF
:104FF000FB68581E7B6859680B469B000B44990060
:105000000B44B0FBF3F30133C3F30B0343F440430E
:10501000796809681343CB617B681B681B6823F0C0
:10502000C0017B68DA697B681B6A1A437B681B686E
:105030000A431A607B681B689B6823F4034323F0D0
:10504000FF037A6811697A68D26811437A68126836
:105050000B4393607B681B68DB6823F0FF017B6870
:105060005A697B689B691A437B681B680A43DA604C
:105070007B681B681A687B681B6842F001021A6033
:105080007B6800221A647B68202283F83D207B68BD
:1050900000221A637B68002283F83E200023184612
:1050A0001037BD4680BD00BFA08601007F841E0072
:1050B000FF083D0083DE1B43D34D621080B588B0EE
:1050C00002AFF8607A601A460B467B8113463B813B
:1050D000FEF70CFF7861FB6893F83D30DBB2202BC4
:1050E00040F0E0807B690093192301227049F86841
:1050F00000F058FC0346002B01D00223D3E0FB68EC
:1051000093F83C30012B01D10223CCE0FB68012253
:1051100083F83C20FB681B681B6803F00103012B2C
:1051200007D0FB681B681A68FB681B6842F0010225
:105130001A60FB681B681A68FB681B6822F400622F
:105140001A60FB68212283F83D20FB68102283F857
:105150003E20FB6800221A64FB687A685A62FB688A
:105160003A895A85FB685B8D9AB2FB681A85FB68A1
:10517000504ADA6279897B693A6AF86800F0C2FAC3
:105180000346002B01D001238DE000233B61FB6827
:105190001B685B693B61FB681B689B693B613B6902
:1051A00066E07A69396AF86800F0D2FC0346002BA1
:1051B0000DD0FB681B6C042B07D1FB681B681A68B9
:1051C000FB681B6842F400721A6001236BE0FB6805
:1051D0005B6A1A78FB681B681A61FB685B6A5A1C79
:1051E000FB685A62FB685B8D9BB2013B9AB2FB681D
:1051F0005A85FB681B8D013B9AB2FB681A85FB68D8
:105200001B685B6903F00403042B1BD1FB681B8D37
:10521000002B17D0FB685B6A1A78FB681B681A6161
:10522000FB685B6A5A1CFB685A62FB685B8D9BB229
:10523000013B9AB2FB685A85FB681B8D013B9AB211
:10524000FB681A857A69396AF86800F0C2FC03467F
:10525000002B0DD0FB681B6C042B07D1FB681B686F
:105260001A68FB681B6842F400721A6001231AE096
:10527000FB681B8D002B94D1FB681B681A68FB68C8
:105280001B6842F400721A60FB68202283F83D20FC
:10529000FB68002283F83E20FB68002283F83C2054
:1052A000002300E0022318461837BD4680BD00BF2A
:1052B000020010000000FFFF80B58CB002AFF86064
:1052C0007A601A460B467B8113463B81FEF70EFE41
:1052D0007862FB6893F83D30DBB2202B40F00B8204
:1052E0007B6A0093192301227C49F86800F05AFB7D
:1052F0000346002B01D00223FEE1FB6893F83C300B
:10530000012B01D10223F7E1FB68012283F83C2045
:10531000FB681B681B6803F00103012B07D0FB68C7
:105320001B681A68FB681B6842F001021A60FB6880
:105330001B681A68FB681B6822F400621A60FB682D
:10534000222283F83D20FB68102283F83E20FB6870
:1053500000221A64FB687A685A62FB683A895A85A7
:10536000FB685B8D9AB2FB681A85FB685C4ADA625F
:1053700079897B6A3A6BF86800F046FA0346002B9D
:1053800001D00123B8E1FB681B8D002B13D1002352
:105390003B62FB681B685B693B62FB681B689B693F
:1053A0003B623B6AFB681B681A68FB681B6842F437
:1053B00000721A608CE1FB681B8D012B1BD1FB680E
:1053C0001B681A68FB681B6822F480621A6000235D
:1053D000FB61FB681B685B69FB61FB681B689B6981
:1053E000FB61FB69FB681B681A68FB681B6842F479
:1053F00000721A606CE1FB681B8D022B1BD1FB68ED
:105400001B681A68FB681B6822F480621A60FB68DC
:105410001B681A68FB681B6842F400621A6000236C
:10542000BB61FB681B685B69BB61FB681B689B69B0
:10543000BB61BB694CE1FB681B681A68FB681B68B1
:1054400042F480621A6000237B61FB681B685B6921
:105450007B61FB681B689B697B617B6938E1FB684A
:105460001B8D032B00F2F180FB681B8D012B23D1D8
:105470007A6A396BF86800F0EDFB0346002B01D027
:10548000012339E1FB681B681A69FB685B6AD2B2C9
:105490001A70FB685B6A5A1CFB685A62FB681B8DBA
:1054A000013B9AB2FB681A85FB685B8D9BB2013B9E
:1054B0009AB2FB685A850BE1FB681B8D022B4ED11B
:1054C0007B6A00933B6B00220649F86800F06AFA99
:1054D0000346002B08D001230EE100BF020010009C
:1054E0000000FFFF04000100FB681B681A68FB68EE
:1054F0001B6842F400721A60FB681B681A69FB683B
:105500005B6AD2B21A70FB685B6A5A1CFB685A620B
:10551000FB681B8D013B9AB2FB681A85FB685B8DAB
:105520009BB2013B9AB2FB685A85FB681B681A69FB
:10553000FB685B6AD2B21A70FB685B6A5A1CFB6834
:105540005A62FB681B8D013B9AB2FB681A85FB68A7
:105550005B8D9BB2013B9AB2FB685A85B8E07B6ACF
:1055600000933B6B00226649F86800F01BFA034683
:10557000002B01D00123BFE0FB681B681A68FB68A1
:105580001B6822F480621A60FB681B681A69FB685A
:105590005B6AD2B21A70FB685B6A5A1CFB685A627B
:1055A000FB681B8D013B9AB2FB681A85FB685B8D1B
:1055B0009BB2013B9AB2FB685A857B6A00933B6BB6
:1055C00000224F49F86800F0EDF90346002B01D0A6
:1055D000012391E0FB681B681A68FB681B6842F4B2
:1055E00000721A60FB681B681A69FB685B6AD2B2BA
:1055F0001A70FB685B6A5A1CFB685A62FB681B8D59
:10560000013B9AB2FB681A85FB685B8D9BB2013B3C
:105610009AB2FB685A85FB681B681A69FB685B6A6B
:10562000D2B21A70FB685B6A5A1CFB685A62FB684C
:105630001B8D013B9AB2FB681A85FB685B8D9BB2A0
:10564000013B9AB2FB685A8542E07A6A396BF86886
:1056500000F000FB0346002B01D001234CE0FB6867
:105660001B681A69FB685B6AD2B21A70FB685B6AD6
:105670005A1CFB685A62FB681B8D013B9AB2FB689F
:105680001A85FB685B8D9BB2013B9AB2FB685A8519
:10569000FB681B685B6903F00403042B18D1FB68EB
:1056A0001B681A69FB685B6AD2B21A70FB685B6A96
:1056B0005A1CFB685A62FB681B8D013B9AB2FB685F
:1056C0001A85FB685B8D9BB2013B9AB2FB685A85D9
:1056D000FB681B8D002B7FF4C2AEFB68202283F891
:1056E0003D20FB68002283F83E20FB68002283F8FF
:1056F0003C20002300E0022318462837BD4680BD29
:105700000400010080B588B002AFF8607A603B60A9
:105710000B467B81FB68DB6A7B617B69082B06D0CB
:105720007B69012B03D07B6913F5803F08D1FB68AF
:105730001B681A68FB681B6842F480721A600BE0F1
:10574000FB681B6B122B07D1FB681B681A68FB6890
:105750001B6842F480721A603B6800937B680022E9
:105760004FF00111F86800F01DF90346002B0DD031
:10577000FB681B681B6803F48073B3F5807F03D15B
:10578000FB684FF400721A64032335E0FB681B6961
:10579000B3F5804F08D17B89DBB21A46FB681B68E2
:1057A00002F0FE021A611BE07B89DB11DBB203F021
:1057B0000603DBB263F00F03DAB2FB681B681A6101
:1057C0003B687A680E49F86800F043F90346002BFD
:1057D00001D0012310E07B89DAB2FB681B681A61F3
:1057E0003B687A680749F86800F033F90346002BF4
:1057F00001D0012300E0002318461837BD4680BDC4
:10580000080001000200010080B588B002AFF86016
:105810007A603B600B467B81FB68DB6A7B61FB68DF
:105820001B681A68FB681B6842F480621A607B6917
:10583000082B06D07B69012B03D07B6913F5803FD1
:1058400008D1FB681B681A68FB681B6842F4807209
:105850001A600BE0FB681B6B112B07D1FB681B6800
:105860001A68FB681B6842F480721A603B680093F8
:105870007B6800224FF00111F86800F093F80346AE
:10588000002B0DD0FB681B681B6803F48073B3F515
:10589000807F03D1FB684FF400721A64032379E020
:1058A000FB681B69B3F5804F08D17B89DBB243F0FD
:1058B0000103DAB2FB681B681A615FE07B89DB11C8
:1058C000DBB203F00603DBB263F00F03DAB2FB686E
:1058D0001B681A613B687A683049F86800F0B9F8CB
:1058E0000346002B01D0012354E07B89DAB2FB6828
:1058F0001B681A613B687A682949F86800F0A9F8C2
:105900000346002B01D0012344E000233B61FB68E8
:105910001B685B693B61FB681B689B693B613B697A
:10592000FB681B681A68FB681B6842F480721A6087
:105930003B6800937B6800224FF00111F86800F08B
:1059400031F80346002B0DD0FB681B681B6803F47D
:105950008073B3F5807F03D1FB684FF400721A6443
:10596000032317E07B89DB11DBB203F00603DBB214
:1059700063F00E03DAB2FB681B681A613B687A6851
:105980000749F86800F065F80346002B01D00123B1
:1059900000E0002318461837BD4680BD080001000E
:1059A0000200010080B584B000AFF860B9603B60D0
:1059B0001346FB7125E03B68B3F1FF3F21D0FEF7B2
:1059C00095FA0246BB69D31A3A689A4202D33B68F9
:1059D000002B16D1FB6800221A63FB68202283F893
:1059E0003D20FB68002283F83E20FB681B6C43F0DF
:1059F0002002FB681A64FB68002283F83C20012324
:105A000023E0BB681B0CDBB2012B0DD1FB681B68CC
:105A10005B69DA43BB6813409BB2002B0CBF0123C8
:105A20000023DBB21A460CE0FB681B689B69DA4373
:105A3000BB6813409BB2002B0CBF01230023DBB2D9
:105A40001A46FB799A42B6D0002318461037BD4655
:105A500080BD80B584B000AFF860B9607A603B600B
:105A600051E0FB681B685B6903F48063B3F5806FEA
:105A700023D1FB681B681A68FB681B6842F400723C
:105A80001A60FB681B686FF480625A61FB68002231
:105A90001A63FB68202283F83D20FB68002283F80C
:105AA0003E20FB681B6C43F00402FB681A64FB6831
:105AB000002283F83C20012346E07B68B3F1FF3FDE
:105AC00021D0FEF713FA02463B68D31A7A689A424D
:105AD00002D37B68002B16D1FB6800221A63FB6897
