:020000040800F2
:1000000000000220112E0008952C00089D2C0008ED
:10001000A52C0008AD2C0008B52C0008000000003D
:1000200000000000000000000000000041B90008CE
:10003000BD2C00080000000091BB0008CB2C00087C
:10004000612E0008612E0008612E0008612E000854
:10005000612E0008E52C0008612E0008612E0008C2
:10006000612E0008612E0008612E0008612E000834
:10007000612E0008612E0008612E0008612E000824
:10008000612E0008612E0008612E0008612E000814
:10009000612E0008612E0008612E0008612E000804
:1000A000F52C0008092D0008612E0008612E0008BB
:1000B000612E0008612E00081D2D0008312D00085A
:1000C000452D0008612E0008612E0008612E0008F1
:1000D000612E0008612E0008612E0008592D0008CD
:1000E000612E0008612E0008612E0008612E0008B4
:1000F000612E00086D2D0008612E0008612E000899
:10010000612E0008612E0008612E0008612E000893
:10011000612E0008612E0008612E0008612E000883
:10012000612E0008612E0008612E0008612E000873
:10013000612E0008612E0008612E0008612E000863
:10014000612E0008612E0008612E0008612E000853
:10015000612E0008612E0008612E0008612E000843
:10016000612E0008612E0008612E0008612E000833
:10017000612E0008612E0008612E000800000000BA
:08018000612E0008612E000849
:1001900010B5054C237833B9044B13B10448AFF3C1
:1001A00000800123237010BD6800002000000000C3
:1001B000E4CA000808B5034B1BB103490348AFF379
:1001C000008008BD000000006C000020E4CA0008A8
:1001D00001F0FF01102A2BDB10F0070F08D010F8F8
:1001E000013B013A8B422DD010F0070F42B3F6D1FC
:1001F000F0B441EA012141EA014122F007047FF015
:1002000000070023F0E80256083C85EA010586EA6B
:10021000010685FA47F5A3FA87F586FA47F6A5FAA7
:1002200087F68EB9EED1F0BC01F0FF0102F00702B3
:1002300032B110F8013B013A83EA010313B1F8D15E
:100240000020704701387047002D06BF354603383F
:10025000073815F0010F07D1013015F4807F02BF78
:10026000013015F4C03F0130F0BC0138704700BFC9
:1002700081F0004102E000BF83F0004330B54FEA57
:1002800041044FEA430594EA050F08BF90EA020FC4
:100290001FBF54EA000C55EA020C7FEA645C7FEA57
:1002A000655C00F0E2804FEA5454D4EB5555B8BF7A
:1002B0006D420CDD2C4480EA020281EA030382EAEB
:1002C000000083EA010180EA020281EA0303362D7D
:1002D00088BF30BD11F0004F4FEA01314FF4801C50
:1002E0004CEA113102D0404261EB410113F0004F62
:1002F0004FEA03334CEA133302D0524263EB430319
:1003000094EA050F00F0A780A4F10104D5F1200EB6
:100310000DDB02FA0EFC22FA05F2801841F1000111
:1003200003FA0EF2801843FA05F359410EE0A5F1E5
:1003300020050EF1200E012A03FA0EFC28BF4CF016
:10034000020C43FA05F3C01851EBE37101F00045CC
:1003500007D54FF0000EDCF1000C7EEB00006EEBD9
:100360000101B1F5801F1BD3B1F5001F0CD3490863
:100370005FEA30004FEA3C0C04F101044FEA4452BA
:1003800012F5800F80F09A80BCF1004F08BF5FEA41
:10039000500C50F1000041EB045141EA050130BD21
:1003A0005FEA4C0C404141EB0101013C28BFB1F533
:1003B000801FE9D291F0000F04BF01460020B1FA7E
:1003C00081F308BF2033A3F10B03B3F120020CDA51
:1003D0000C3208DD02F1140CC2F10C0201FA0CF02F
:1003E00021FA02F10CE002F11402D8BFC2F1200C94
:1003F00001FA02F120FA0CFCDCBF41EA0C0190404A
:10040000E41AA2BF01EB0451294330BD6FEA040492
:100410001F3C1CDA0C340EDC04F11404C4F120027D
:1004200020FA04F001FA02F340EA030021FA04F38F
:1004300045EA030130BDC4F10C04C4F1200220FAE6
:1004400002F001FA04F340EA0300294630BD21FA24
:1004500004F0294630BD94F0000F83F4801306BFEA
:1004600081F480110134013D4EE77FEA645C18BFDE
:100470007FEA655C29D094EA050F08BF90EA020F75
:1004800005D054EA000C04BF1946104630BD91EA6D
:10049000030F1EBF0021002030BD5FEA545C05D170
:1004A0004000494128BF41F0004130BD14F58004AF
:1004B0003CBF01F5801130BD01F0004545F0FE4123
:1004C00041F470014FF0000030BD7FEA645C1ABF58
:1004D000194610467FEA655C1CBF0B46024650EA8F
:1004E000013406BF52EA033591EA030F41F40021BB
:1004F00030BD00BF90F0000F04BF0021704730B541
:100500004FF4806404F132044FF000054FF0000115
:1005100050E700BF90F0000F04BF0021704730B5D6
:100520004FF4806404F1320410F0004548BF4042AB
:100530004FF000013EE700BF42004FEAE2014FEA00
:1005400031014FEA02701FBF12F07F4393F07F4FDB
:1005500081F06051704732F07F4208BF704793F0DE
:100560007F4F04BF41F40021704730B54FF46074F1
:1005700001F0004521F000411CE700BF50EA0102F4
:1005800008BF704730B54FF000050AE050EA01029D
:1005900008BF704730B511F0004502D5404261EB0D
:1005A00041014FF4806404F132045FEA915C3FF44E
:1005B000D8AE4FF003025FEADC0C18BF03325FEAEB
:1005C000DC0C18BF033202EBDC02C2F1200300FA9C
:1005D00003FC20FA02F001FA03FE40EA0E0021FAC1
:1005E00002F11444BDE600BF70B54FF0FF0C4CF4AF
:1005F000E06C1CEA11541DBF1CEA135594EA0C0F61
:1006000095EA0C0F00F0DEF82C4481EA030621EA9B
:100610004C5123EA4C5350EA013518BF52EA0335D6
:1006200041F4801143F4801338D0A0FB02CE4FF088
:100630000005E1FB02E506F00042E0FB03E54FF0B8
:100640000006E1FB03569CF0000F18BF4EF0010EB0
:10065000A4F1FF04B6F5007F64F5407404D25FEAAC
:100660004E0E6D4146EB060642EAC62141EA55515F
:100670004FEAC52040EA5E504FEACE2EB4F1FD0CA1
:1006800088BFBCF5E06F1ED8BEF1004F08BF5FEA1F
:10069000500E50F1000041EB045170BD06F00046D1
:1006A00046EA010140EA020081EA0301B4EB5C047E
:1006B000C2BFD4EB0C0541EA045170BD41F4801176
:1006C0004FF0000E013C00F3AB8014F1360FDEBF9B
:1006D000002001F0004170BDC4F10004203C35DA77
:1006E0000C341BDC04F11404C4F1200500FA05F3FA
:1006F00020FA04F001FA05F240EA020001F000429B
:1007000021F0004110EBD37021FA04F642EB060110
:100710005EEA430E08BF20EAD37070BDC4F10C043A
:10072000C4F1200500FA04F320FA05F001FA04F2FE
:1007300040EA020001F0004110EBD37041F10001EA
:100740005EEA430E08BF20EAD37070BDC4F12005F5
:1007500000FA05F24EEA020E20FA04F301FA05F25D
:1007600043EA020321FA04F001F0004121FA04F205
:1007700020EA020000EBD3705EEA430E08BF20EAD5
:10078000D37070BD94F0000F0FD101F0004640000F
:1007900041EB010111F4801F08BF013CF7D041EA91
:1007A000060195F0000F18BF704703F00046520095
:1007B00043EB030313F4801F08BF013DF7D043EA66
:1007C0000603704794EA0C0F0CEA135518BF95EA1C
:1007D0000C0F0CD050EA410618BF52EA4306D1D1A3
:1007E00081EA030101F000414FF0000070BD50EAC2
:1007F000410606BF1046194652EA430619D094EA4C
:100800000C0F02D150EA013613D195EA0C0F05D135
:1008100052EA03361CBF104619460AD181EA030189
:1008200001F0004141F0FE4141F470014FF0000041
:1008300070BD41F0FE4141F4780170BD70B54FF0DC
:10084000FF0C4CF4E06C1CEA11541DBF1CEA13555C
:1008500094EA0C0F95EA0C0F00F0A7F8A4EB05043E
:1008600081EA030E52EA03354FEA013100F0888035
:100870004FEA03334FF0805545EA131343EA1263FE
:100880004FEA022245EA111545EA10654FEA0026B3
:100890000EF000419D4208BF964244F1FD0404F56C
:1008A000407402D25B084FEA3202B61A65EB0305C8
:1008B0005B084FEA32024FF480104FF4002CB6EB85
:1008C000020E75EB030E22BFB61A754640EA0C0005
:1008D0005B084FEA3202B6EB020E75EB030E22BF45
:1008E000B61A754640EA5C005B084FEA3202B6EB86
:1008F000020E75EB030E22BFB61A754640EA9C0045
:100900005B084FEA3202B6EB020E75EB030E22BF14
:10091000B61A754640EADC0055EA060E18D04FEAD2
:10092000051545EA16754FEA06164FEAC30343EA72
:1009300052734FEAC2025FEA1C1CC0D111F4801F3F
:100940000BD141EA00014FF000004FF0004CB6E738
:1009500011F4801F04BF01430020B4F1FD0C88BFD7
:10096000BCF5E06F3FF6AFAEB5EB030C04BFB6EBE2
:10097000020C5FEA500C50F1000041EB045170BDD5
:100980000EF0004E4EEA113114EB5C04C2BFD4EB02
:100990000C0541EA045170BD41F480114FF0000E86
:1009A000013C90E645EA060E8DE60CEA135594EA02
:1009B0000C0F08BF95EA0C0F3FF43BAF94EA0C0F05
:1009C0000AD150EA01347FF434AF95EA0C0F7FF47A
:1009D00025AF104619462CE795EA0C0F06D152EACE
:1009E00003353FF4FDAE1046194622E750EA4106B2
:1009F00018BF52EA43067FF4C5AE50EA41047FF4C3
:100A00000DAF52EA43057FF4EBAE12E74FF0FF3C27
:100A100006E000BF4FF0010C02E000BF4FF0010CF8
:100A20004DF804CD4FEA410C7FEA6C5C4FEA430C71
:100A300018BF7FEA6C5C1BD001B050EA410C0CBFC0
:100A400052EA430C91EA030F02BF90EA020F002022
:100A5000704710F1000F91EA030F58BF994208BF89
:100A600090422CBFD8176FEAE37040F00100704746
:100A70004FEA410C7FEA6C5C02D150EA013C07D19D
:100A80004FEA430C7FEA6C5CD6D152EA033CD3D0E8
:100A90005DF8040B704700BF8446104662468C46E2
:100AA0001946634600E000BF01B5FFF7B7FF002815
:100AB00048BF10F1000F01BD4DF808EDFFF7F4FF3E
:100AC0000CBF012000205DF808FB00BF4DF808EDC9
:100AD000FFF7EAFF34BF012000205DF808FB00BFEC
:100AE0004DF808EDFFF7E0FF94BF012000205DF80E
:100AF00008FB00BF4DF808EDFFF7CEFF94BF0120C3
:100B000000205DF808FB00BF4DF808EDFFF7C4FFBB
:100B100034BF012000205DF808FB00BF4FEA41020E
:100B200012F5001215D211D56FF47873B3EB62523F
:100B300012D94FEAC12343F0004343EA505311F066
:100B4000004F23FA02F018BF404270474FF00000F8
:100B5000704750EA013005D111F0004008BF6FF036
:100B6000004070474FF00000704700BF4A0011D2AC
:100B700012F5001211D20DD56FF47873B3EB6252F7
:100B80000ED44FEAC12343F0004343EA505323FA03
:100B900002F070474FF00000704750EA013002D178
:100BA0004FF0FF3070474FF00000704753B94AB91B
:100BB000002908BF00281CBF4FF0FF314FF0FF3065
:100BC00000F06AB9ADF1080C6DE904CE00F006F84A
:100BD000DDF804E0DDE9022304B070472DE9F047B9
:100BE000089D0C46002B4ED194468C458646B2FAA1
:100BF00082F262D94AB1C2F12003914020FA03F394
:100C00000CFA02FC194300FA02FE4FEA1C471FFAD5
:100C10008CF6B1FBF7F44FEA1E4307FB141143EACD
:100C2000014304FB06F199420AD91CEB030304F1CA
:100C3000FF3080F01281994240F20F81023C634400
:100C4000591A1FFA8EF3B1FBF7F007FB101143EAB4
:100C5000014300FB06F69E420AD91CEB030300F198
:100C6000FF3180F0FC809E4240F2F98063440238FC
:100C70009B1B40EA044000211DB1D3400022C5E97E
:100C80000032BDE8F0878B4205D90DB1C5E90001FE
:100C900000210846F5E7B3FA83F1002946D1A342C3
:100CA00002D39042C0F0F080861A64EB0303012067
:100CB000002DE6D0C5E90063E3E7002A40F090800C
:100CC000A1EB0C044FEA1C481FFA8CF70121B4FB7E
:100CD000F8F64FEA1E4308FB164443EA044307FBB9
:100CE00006F0984208D91CEB030306F1FF3402D248
:100CF000984200F2CD8026461C1A1FFA8EF3B4FBF0
:100D0000F8F008FB104443EA044300FB07F79F4256
:100D100008D91CEB030300F1FF3402D29F4200F21A
:100D2000B0802046DB1B40EA0640A5E7C1F1200663
:100D30008B4022FA06F71F4320FA06FC04FA01F35F
:100D400043EA0C03F44000FA01F8380C4FEA134967
:100D5000B4FBF0FE1FFA87FC00FB1E4449EA044482
:100D60000EFB0CF9A14502FA01F20AD93C190EF169
:100D7000FF3A80F08480A14540F28180AEF1020EFE
:100D80003C44A4EB09041FFA83F9B4FBF0F300FB25
:100D9000134449EA044403FB0CFCA44507D93C195D
:100DA00003F1FF3067D2A44565D9023B3C4443EAD6
:100DB0000E40A0FB0293A4EB0C049C42CE469C4642
:100DC00051D34ED055B1B8EB0E0364EB0C0404FACA
:100DD00006F6CB401E43CC40C5E90064002150E735
:100DE000C2F1200320FA03F10CFA02FC24FA03F307
:100DF00094400C434FEA1C4800FA02FE1FFA8CF79D
:100E0000B3FBF8F008FB1031230C43EA014300FB6D
:100E100007F1994208D91CEB030300F1FF362CD2ED
:100E200099422AD9023863445B1AA4B2B3FBF8F1A1
:100E300008FB113344EA034401FB07F3A34208D93A
:100E40001CEB040401F1FF3613D2A34211D902397D
:100E50006444E41A41EA004139E70446F0E60846F2
:100E600006E7C845AED2B9EB020E63EB070C0138BA
:100E7000A8E73146EDE7034699E73046D4E7D64682
:100E80007FE7634402384DE70646234608460FE7EE
:100E9000023E634430E700BF704700BF80B400AF3C
:100EA000BFF34F8F00BF064BDB6803F4E0620449D9
:100EB000044B1343CB60BFF34F8F00BF00BFFDE770
:100EC00000ED00E00400FA0580B500AF02F0FCF987
:100ED00000F084F800F07CFB00F0DEF800F00AF986
:100EE00000F0A6F900F0F8F900F04AFA00F09CFAD8
:100EF00000F044FB02F05CF905222149214807F08B
:100F00009EFB08F04BFB204A0021204808F090FB94
:100F100003461F4A13601F4A00211F4808F088FB40
:100F200003461E4A13601E4A00211E4808F080FB3B
:100F300003461D4A13601D4A00211D4808F078FB36
:100F400003461C4A13601C4A00211C4808F070FB31
:100F500003461B4A13601B4A00211B4808F068FB2C
:100F600003461A4A13601A4A00211A4808F060FB27
:100F70000346194A136008F035FB00BFFDE700BFC8
:100F8000A40200204002002094CB0008391D000874
:100F900088020020B8CB0008611D00088C020020E8
:100FA000DCCB0008AD2100089002002000CC000836
:100FB000C92200089402002024CC000865240008FF
:100FC0009802002048CC00088D2600089C020020D2
:100FD0006CCC000815270008A002002080B594B052
:100FE00000AF07F120033022002118460BF0A4F8CF
:100FF00007F10C0300221A605A609A60DA601A61E5
:101000000023BB60224B1B6C214A43F080531364C6
:101010001F4B1B6C03F08053BB60BB6800237B60DD
:101020001C4B1B681B4A43F480431360194B1B681D
:1010300003F480437B607B6802233B620123FB62F5
:1010400010233B630023BB6307F12003184605F020
:101050005FFA0346002B01D001F0A0FB0F23FB60D9
:1010600000233B6100237B610023BB610023FB6104
:1010700007F10C030021184605F0C2FC0346002BC3
:1010800001D001F08BFB00BF5037BD4680BD00BFD3
:10109000003802400070004080B500AF124B134A88
:1010A0001A60114B124A5A600F4B00229A600E4B85
:1010B0000022DA600C4B4FF480421A610A4B002286
:1010C0005A61094B00229A61074B0022DA61064BF4
:1010D00000221A62044802F00FFD0346002B01D0E3
:1010E00001F05CFB00BF80BD840000200054004084
:1010F000A086010080B596B000AF07F1480300223A
:101100001A605A609A60DA6007F1400300221A60A0
:101110005A6007F1240300221A605A609A60DA606C
:101120001A615A619A613B1D2022002118460BF07A
:1011300003F83D4B3D4A1A603B4BA0225A603A4BA4
:1011400000229A60384B4FF47A72DA60364B0022F4
:101150001A61354B00225A61334B80229A61324822
:1011600005F02EFE0346002B01D001F017FB4FF4D3
:101170008053BB6407F1480319462B4806F062FB15
:101180000346002B01D001F009FB274805F067FE5C
:101190000346002B01D001F001FB00233B64002338
:1011A0007B6407F1400319461F4807F08BF803469C
:1011B000002B01D001F0F2FA60237B620023BB62B6
:1011C0000023FB6200237B630023BB630023FB63DC
:1011D00007F124030C221946134806F071FA03465E
:1011E000002B01D001F0DAFA00237B600023BB6002
:1011F0000023FB6000233B6100237B614FF400531D
:10120000BB6100233B623B1D1946074807F0D6F837
:101210000346002B01D001F0C1FA034801F0B0FCF5
:1012200000BF5837BD4680BDD800002000000140F7
:1012300080B58CB000AF07F10C03242200211846C2
:101240000AF07AFF3B1D00221A605A60214B4FF0D2
:1012500080421A601F4B00225A601E4B00229A6087
:101260001C4B4FF6FF72DA601A4B00221A61194BC1
:1012700000229A610323FB6000233B6101237B6111
:101280000023BB610A23FB6100233B6201237B62D5
:101290000023BB620A23FB6207F10C0319460D48C9
:1012A00005F04DFF0346002B01D001F077FA002333
:1012B0007B600023BB603B1D1946064807F002F81F
:1012C0000346002B01D001F069FA00BF3037BD465C
:1012D00080BD00BF2001002080B58CB000AF07F1B9
:1012E0000C032422002118460AF026FF3B1D002291
:1012F0001A605A60204B214A1A601F4B00225A6024
:101300001D4B00229A601C4B4FF6FF72DA601A4B9D
:1013100000221A61184B00229A610323FB6000230C
:101320003B6101237B610023BB610A23FB61002336
:101330003B6201237B620023BB620A23FB6207F14D
:101340000C0319460C4805F0FAFE0346002B01D0A9
:1013500001F024FA00237B600023BB603B1D19468B
:10136000054806F0AFFF0346002B01D001F016FA46
:1013700000BF3037BD4680BD68010020000400403A
:1013800080B586B000AF07F1100300221A605A60E2
:101390003B4600221A605A609A60DA60204B214A6C
:1013A0001A601F4B0F225A601D4B00229A601C4B83
:1013B0004FF6FF72DA601A4B00221A61184B0022B6
:1013C0009A61174805F06CFE0346002B01D001F02E
:1013D000E5F900233B6100237B6107F11003194607
:1013E0000F4806F06FFF0346002B01D001F0D6F93D
:1013F00000233B6001237B600023BB600023FB6074
:101400003B4600221946064806F0BDF80346002B6D
:1014100001D001F0C3F900BF1837BD4680BD00BF41
:10142000B00100200008004080B596B000AF07F181
:10143000480300221A605A609A60DA6007F140039C
:1014400000221A605A6007F1240300221A605A60D1
:101450009A60DA601A615A619A613B1D202200216C
:1014600018460AF069FE434B434A1A60414B00227A
:101470005A60404B00229A603E4B41F61F42DA60B0
:101480003C4B00221A613B4B00225A61394B00222F
:101490009A61384805F094FC0346002B01D001F016
:1014A0007DF94FF48053BB6407F148031946314876
:1014B00006F0C8F90346002B01D001F06FF92D4862
:1014C00005F0CDFC0346002B01D001F067F90023A5
:1014D0003B6400237B6407F140031946254806F06E
:1014E000F1FE0346002B01D001F058F960237B6226
:1014F0000023BB620023FB6200233B6300237B636A
:101500000023BB630023FB6307F124030022194679
:10151000184806F0D5F80346002B01D001F03EF93B
:1015200007F1240304221946124806F0C9F80346BD
:10153000002B01D001F032F900237B600023BB6057
:101540000023FB6000233B6100237B614FF40053C9
:10155000BB6100233B623B1D1946064806F02EFF87
:101560000346002B01D001F019F900BF5837BD46E2
:1015700080BD00BFF80100200004014080B500AF2D
:10158000114B124A1A60104B4FF4E1325A600E4B65
:1015900000229A600C4B0022DA600B4B00221A6189
:1015A000094B0C225A61084B00229A61064B00221B
:1015B000DA61054806F068FF0346002B01D001F010
:1015C000EDF800BF80BD00BF400200200048004091
:1015D00080B58CB000AF07F11C0300221A605A607E
:1015E0009A60DA601A610023BB615B4B1B6B5A4A3D
:1015F00043F010031363584B1B6B03F01003BB61E4
:10160000BB6900237B61544B1B6B534A43F080033F
:101610001363514B1B6B03F080037B617B690023D9
:101620003B614D4B1B6B4C4A43F0010313634A4B28
:101630001B6B03F001033B613B690023FB60464BDE
:101640001B6B454A43F002031363434B1B6B03F0D0
:101650000203FB60FB680023BB603F4B1B6B3E4AF1
:1016600043F0080313633C4B1B6B03F00803BB60A0
:10167000BB6800237B60384B1B6B374A43F0040385
:101680001363354B1B6B03F004037B607B68002204
:101690004FF4BC61314802F0FBF900223C21304894
:1016A00002F0F6F900224FF480612E4802F0F0F9C2
:1016B00000224FF400512C4802F0EAF94FF4BC63C9
:1016C000FB6101233B6200237B620023BB6207F1C5
:1016D0001C031946214802F03FF83C23FB6101231B
:1016E0003B6200237B620223BB6207F11C031946A5
:1016F0001B4802F031F84FF48063FB6101233B6229
:1017000000237B620023BB6207F11C0319461548C6
:1017100002F022F84FF48073FB614FF488133B62B0
:1017200000237B6207F11C0319460F4802F014F8EE
:101730004FF40053FB6101233B6200237B620023D3
:10174000BB6207F11C031946074802F005F800BF09
:101750003037BD4680BD00BF003802400010024057
:101760000000024000040240000C024080B582B03C
:1017700000AF786005220549054806F060FF054B7B
:1017800001221A6000BF0837BD4680BDA4020020B8
:1017900040020020F402002080B582B000AF87ED47
:1017A000000B33A3D3E90023D7E90001FEF71CFFA8
:1017B00002460B46C7E900230A2007F0CBFF244B63
:1017C00093221A804FF4E17007F0C4FF214B0022EE
:1017D0001A60214B00221A60204B214A1A60214BCB
:1017E0001F4A1A60204B1E4A1A60204B1C4A1A607E
:1017F0001D4B1B681846FEF78DFED7E90023FEF748
:101800003DFD02460B4610461946FFF787F9034691
:10181000154A1360154B1B681846FEF77BFED7E987
:101820000023FEF72BFD02460B4610461946FFF734
:1018300075F903460D4A136000BF00F0B7F903467F
:10184000002BFAD100BF00BF0837BD4680BD00BFE6
:1018500000000020BC020020B8020020C0020020CE
:10186000F8240100C4020020C8020020CC0200209D
:101870000000000000C0524080B582B000AF87ED8C
:10188000000B134BFA221A804FF4E17007F062FF4D
:10189000104B00221A60104B00221A600F4BD3E944
:1018A0000001D7E90023FEF7E7FC02460B460B498F
:1018B000C1E9002300BF00F079F90346002BFAD1FB
:1018C000034B93221A8000BF0837BD4680BD00BF7E
:1018D00000000020BC020020B8020020D00200203E
:1018E00080B582B000AF87ED000B134B60221A80E9
:1018F0004FF4E17007F02EFF104B00221A60104BDE
:1019000000221A600F4BD3E90001D7E90023FEF74C
:10191000B5FC02460B460B49C1E9002300BF00F0AD
:1019200045F90346002BFAD1034B93221A8000BFDE
:101930000837BD4680BD00BF00000020BC0200206B
:10194000B8020020D002002080B584B000AF7860DB
:1019500039603B68002B18D07B68002B0ADD012220
:1019600010213C4802F094F800222021394802F06E
:101970008FF822E000221021364802F089F8012277
:101980002021344802F084F817E07B68002B0ADD40
:10199000012208212F4802F07BF8002204212D4863
:1019A00002F076F809E0002208212A4802F070F8D7
:1019B00001220421274802F06BF87B68002BB8BF96
:1019C0005B421846FEF7A6FD4FF00002224BFEF7E1
:1019D0000BFE02460B4610461946FFF79FF80346DA
:1019E000FB60FB6840F6AC52934203DD40F6AC531B
:1019F000FB602AE0FB68B3F5FA6F03DD4FF4FA638E
:101A0000FB6022E0FB68B3F57A7F03DD4FF4AF6340
:101A1000FB601AE0FB68B3F5FA7F03DD4FF47A73DD
:101A2000FB6012E0FB68022B08DD0C4B1B680133E6
:101A30000A4A13604FF44873FB6006E0074B1B68CB
:101A40000133064A13600023FB60FB681846103719
:101A5000BD4680BD0000024000000840B8020020E2
:101A600080B586B000AF87ED020B78604FF00002C2
:101A70004A4BD7E90201FEF7B7FD02460B46104676
:101A80001946FFF74BF803463B617B68002B18D0E3
:101A90003B69002B0ADD01221021414801F0F8FFCB
:101AA000002220213E4801F0F3FF22E00022102115
:101AB0003B4801F0EDFF01222021394801F0E8FF09
:101AC00017E03B69002B0ADA01220821344801F0B3
:101AD000DFFF00220421324801F0DAFF09E0002292
:101AE00008212F4801F0D4FF012204212C4801F0E5
:101AF000CFFF3B69002BB8BF5B421846FEF70AFDDB
:101B00004FF00002274BFEF76FFD02460B461046D2
:101B10001946FFF703F803467B617B6940F6AC5238
:101B2000934203DD40F6AC537B6131E07B69B3F552
:101B3000FA6F03DD40F6B8337B6129E07B69B3F5CA
:101B40007A7F03DD4FF4C8637B6121E07B69B3F5E5
:101B5000FA7F03DD4FF4AF637B6119E07B690A2BE9
:101B600003DD4FF47A737B6112E07B69012B08DDA2
:101B70000D4B1B6801330C4A13604FF448737B61B3
:101B800006E0094B1B680133074A136000237B61A1
:101B90007B6918461837BD4680BD00BF0000244051
:101BA0000000024000000840B802002080B500AFED
:101BB000104B1B68142B1ADD0F4B01221A600F4BC0
:101BC00000221A800D4B1A880D4B1A800D4B1B6892
:101BD0000D4A13600D4B1B680D4A1360054B002224
:101BE0001A604FF4967007F0B5FD002300E0012362
:101BF000184680BDB8020020BC020020B4020020BC
:101C0000B6020020C4020020CC020020C002002046
:101C1000C802002080B584B002AF03463960FB7172
:101C20000E4AFB7913700E4B1B785B0099B20A23A6
:101C300000930123094A0B4802F0B8F8084B1B78BF
:101C40005B0099B21423009302233A68054802F01E
:101C5000ABF900BF0837BD4680BD00BFE0020020E1
:101C6000020000208400002080B584B002AF03464B
:101C70000A46FB711346BB710A4AFB791370094A85
:101C8000BB795370084B1B785B0099B21423009307
:101C90000223044A054802F089F800BF0837BD4610
:101CA00080BD00BFE0020020020000208400002070
:101CB00080B500AF00210620FFF7D6FF0A2007F00D
:101CC00049FD80210320FFF7CFFF0A2007F042FDE6
:101CD00007210720FFF7C8FF0A2007F03BFD01217D
:101CE0000620FFF7C1FF0A2007F034FD20217F20E6
:101CF000FFF7BAFF0A2007F02DFD2F210120FFF783
:101D0000B3FF0A2007F026FD00210020FFF7ACFFFB
:101D10000A2007F01FFD00217F20FFF7A5FF0A2002
:101D200007F018FD00210720FFF79EFF0A2007F0AB
:101D300011FD00BF80BD000080B582B000AF7860AB
:101D40004FF48061044801F0BCFE4FF4FA6007F0E4
:101D500001FD00BFF4E700BF0010024000000000DA
:101D600080B586B000AF7860AD4B00221A80AD4BD5
:101D700000221A8000237B610021AB4805F0C8F8DF
:101D80000421A94805F0C4F80C21A84805F0C0F8C2
:101D9000A64B1B6893221A6401221021A44801F06B
:101DA00077FE00222021A24801F072FE01220821C4
:101DB0009F4801F06DFE002204219D4801F068FE5D
:101DC0004FF47A7007F0C6FC9A4B1A88974B1B6841
:101DD0001A64994BD3E90001984BD3E90023FEF72D
:101DE0004BFA02460B46C7E90223924B1B887E2B17
:101DF0004CD8012097ED020BFFF732FE0346184640
:101E0000FEF788FB82A3D3E90023FEF7EDFB024631
:101E10000B4610461946FEF7A9FE03469AB2804BC0
:101E20001A807F4B1B881846FEF774FB7AA3D3E910
:101E30000023FEF7D9FB02460B4610461946FEF773
:101E400095FE03469AB2774B1A804FF000024FF08E
:101E50000003D7E90201FEF757FE0346002B0AD024
:101E600001220821724801F013FE0022042170486B
:101E700001F00EFE51E1002208216D4801F008FE3C
:101E8000012204216A4801F003FE46E1694B1B88E8
:101E9000BD2B3DD9002097ED020BFFF7E1FD034676
:101EA0009AB2604B1A805F4B1B881846FEF732FBD4
:101EB00059A3D3E90023FEF797FB02460B461046D1
:101EC0001946FEF753FE03469AB2554B1A804FF05F
:101ED00000024FF00003D7E90201FEF7F7FD0346C9
:101EE000002B0AD001221021514801F0D1FD00221F
:101EF00020214F4801F0CCFD0FE1002210214C4879
:101F000001F0C6FD01222021494801F0C1FD04E194
:101F10004B4B1A684B4B1B68D31A00211846FFF72E
:101F200013FD03461846FEF7F5FA39A3D3E900235B
:101F3000FEF75AFB02460B4610461946FEF716FE00
:101F400003469AB2364B1A803D4B1A683D4B1B68CC
:101F5000D31A83EAE372A2EBE3723B4B19683B4B63
:101F60001B68CB1A002BB8BF5B429A4203DD7B692A
:101F700001337B6102E07B69013B7B61304B1A6876
:101F8000304B1B68D31A13F1630F08DB2C4B1A6814
:101F90002C4B1B68D31A632B01DC00237B612A4B7B
:101FA0001A682A4B1B68D31A01211846FFF7CCFC8C
:101FB00003469AB27B699BB213449AB2194B1A80BA
:101FC0001F4B1A681F4B1B68D31A002B64DA4FF0A3
:101FD00000024FF08043D7E90201FEF795FD03466A
:101FE000002B03D0134BA6221A8096E04FF000027C
:101FF0004FF04043D7E90201FEF768FD0346002B8E
:1020000026D00C4B80221A8087E000BFAFF30080FF
:10201000F4FDD478E926F13F333333333333EB3FE8
:10202000B4020020B6020020F8010020D8000020F1
:102030000000024000000020D0020020D802002052
:10204000CC020020C4020020C8020020C0020020F0
:102050004FF00002484BD7E90201FEF7C5FA0246ED
:102060000B46104619464FF00002444BFEF7E6FBC4
:1020700002460B46104619463DA3D3E90023FEF75E
:10208000FDF802460B4610461946FEF76FFD034663
:102090009AB23B4B1A8040E04FF000024FF0804371
:1020A000D7E90201FEF730FD0346002B03D0344B85
:1020B00080221A8031E04FF000024FF04043D7E910
:1020C0000201FEF703FD0346002B03D02C4BA62292
:1020D0001A8022E04FF000022A4BD7E90201FEF7F6
:1020E00083FA02460B46104619464FF00002234B76
:1020F000FEF7A4FB02460B46104619461CA3D3E983
:102100000023FEF7BBF802460B4610461946FEF7C1
:102110002DFD03469AB21A4B1A801B4B1B68002BED
:102120000ED01A4B00221A80184B1A88184B1A80AE
:10213000184B1B68184A1360184B1B68184A136029
:10214000134B1A88174B1B685A63104B1A88154B90
:102150001B689A63012007F0FDFA134B1B68B3F567
:102160007A7F7FF731AE104B40F2E9321A602BE6EE
:102170000000000000606240000033400000144096
:1021800000000020000033C0BC020020B402002088
:10219000B6020020C4020020CC020020C0020020B1
:1021A000C8020020F8010020B8020020B0B596B0A7
:1021B00004AF786000233B6307F1340300221A6008
:1021C0005A609A60DA600023FB6107F12003002265
:1021D0001A605A609A60DA600023BB6007F10C0352
:1021E00000221A605A609A60DA60314BD3E90045E8
:1021F0002F4BD3E9002310461946FEF78FFC034608
:102200001846FEF787F902460B4620462946FEF798
:1022100033F802460B46104619464FF00002254B94
:10222000FEF7E2F902460B4610461946FEF776FC29
:102230000346002BB8BF5B427B641D4BD3E90023F0
:1022400010461946FEF76AFC024607F11C007B6C3B
:10225000194909F051FF07F11C031A460A21002011
:1022600000F074FF154B1B781C46144B5B781D4621
:10227000124B9B781A46114BDB7819460F4B1B7992
:1022800007F108000293019100922B4622460C4967
:1022900009F032FF07F108031A461421002000F06C
:1022A00055FF00F0DFFD642007F054FA00BF9CE703
:1022B000D802002000408F405CCB0008A402002020
:1022C0006CCB000800000000B0B58AB000AF7860A9
:1022D000FFF7EEFC00233B8100237B8100237B6220
:1022E0004FF000024FF00003C7E906234FF0000251
:1022F0004FF00003C7E904230023FB60322007F0FE
:1023000029FA48E0012007F025FA07F108031946E9
:102310003720FFF77FFC3B7A1B021AB27B7A1BB295
:1023200013437B81B7F90A301846FEF7F3F80446E9
:102330000D4601F02FF802467B6AD31A1846FEF7C5
:10234000D9F846A3D3E90023FEF778FA02460B46F4
:1023500020462946FEF748F902460B46D7E9040114
:10236000FDF78CFF02460B46C7E90423B7F90A3094
:102370001846FEF7CFF802460B46D7E90601FDF7EF
:102380007DFF02460B46C7E9062301F003F8786299
:10239000FB680133FB60FB68B3F57A7FB2DBF8685A
:1023A000FEF7B8F802460B46D7E90601FEF746FAF3
:1023B00002460B46C7E9062300F0ECFF7862642072
:1023C00007F0C8F907F1080319463720FFF722FC88
:1023D0003B7A1B021AB27B7A1BB213437B81B7F99B
:1023E0000A301846FEF796F8D7E90623FDF744FFB2
:1023F00002460B4614461D4600F0CCFF02467B6A9F
:10240000D31A1846FEF776F814A3D3E90023FEF793
:1024100015FA02460B4620462946FEF7E5F8024625
:102420000B46104619460C4BD3E90023FDF726FF57
:1024300002460B460849C1E90023B7F90A30FA6899
:10244000D31AFB6000F0A6FF7862FB680133FB60E3
:1024500000BFB4E7AFF30080D80200200000000006
:102460000004D04080B584B000AF78604123FB7396
:10247000814B45221A70804B4D225A707E4B502260
:102480009A707D4B5422DA707B4B59221A717B4B28
:102490001B68012B40F0D780794B00221A60764BE5
:1024A0001B78472B0FD1744B5B78592B0BD1724B98
:1024B0009B78522B07D1704BDB784F2B03D16E4B9F
:1024C0001B79522B15D06C4B1B78532B08D06A4BC1
:1024D0001B78522B04D0684B1B784C2B40F0B380F8
:1024E000654B5B78462B04D0634B5B78422B40F006
:1024F000AA80614B9B78303B642202FB03F15E4B68
:10250000DB78A3F1300213469B0013445B00CA182A
:10251000594B1B79303B1344594A1360564B5B7837
:10252000422B04D1564B1B685B42554A13600A206C
:1025300007F010F9504B1B78473B0C2B00F28380BF
:1025400001A252F823F000BF4326000847260008E6
:1025500047260008472600084726000801260008ED
:102560004726000847260008472600084726000897
:1025700047260008BF2500087D250008404B1B6842
:102580001846FDF7C7FF02460B4643EC102BFFF73A
:1025900003F93C4B01221A60374B44221A70364B28
:1025A0004F225A70344B4E229A70334B4522DA70C8
:1025B000314B21221A710A2007F0CCF843E0304B4E
:1025C0001B681846FDF7A6FF02460B4643EC102B8E
:1025D000FFF752F92B4B01221A60274B44221A7045
:1025E000254B4F225A70244B4E229A70224B452283
:1025F000DA70214B21221A710A2007F0ABF822E091
:102600001F4B1B681846FDF785FF02460B4643EC3F
:10261000102BFFF765F91B4B01221A60164B442261
:102620001A70154B4F225A70134B4E229A70124B50
:102630004522DA70104B21221A710A2007F08AF81D
:1026400001E0FEF72BFC0F4B1B68012B10D10B4B4D
:1026500000221A600A2007F07DF807F10F014FF6FB
:10266000FF730122084805F05FFF064B00221A6045
:102670000A2007F06FF80AE7A4020020F402002005
:10268000B0020020AC0200204002002080B586B0DD
:1026900000AF78603C211D4804F0F7FD01237B6109
:1026A00000F078FEF86000F075FE0246FB68D31A71
:1026B0000A2BF8D9154B1B685B6ABB60BB68B3F586
:1026C000FA4F06DD01237B61BB68C3F580333B61B4
:1026D00004E04FF0FF337B61BB683B617B69012BFA
:1026E00006D10B4B1A683B69D31A094A136005E0FF
:1026F000074B1A683B691344054A1360034B1B6878
:1027000000225A6200F046FEF860CCE76801002023
:10271000C002002080B586B000AF78603C211D4823
:1027200004F0B3FD01237B6100F034FEF86000F09B
:1027300031FE0246FB68D31A0A2BF8D9154B1B68E9
:102740005B6ABB60BB68B3F5FA4F06DD01237B61B2
:10275000BB68C3F580333B6104E04FF0FF337B611E
:10276000BB683B617B69012B06D10B4B1A683B6947
:102770001344094A136005E0074B1A683B69D31AF2
:10278000054A1360034B1B6800225A6200F002FEE8
:10279000F860CCE720010020C402002080B400AF24
:1027A00072B600BF00BFFDE780B582B000AF002366
:1027B0007B60164B5B6C154A43F480435364134BA8
:1027C0005B6C03F480437B607B6800233B600F4BB2
:1027D0001B6C0E4A43F0805313640C4B1B6C03F0CC
:1027E00080533B603B6800220F216FF0010000F036
:1027F000DCFE00220521052000F0D7FE052000F0B8
:10280000F0FE00BF0837BD4680BD00BF0038024063
:1028100080B58AB000AF786007F1140300221A6017
:102820005A609A60DA601A617B681B68214A934299
:102830003CD100233B61204B1B6B1F4A43F002033A
:1028400013631D4B1B6B03F002033B613B694FF4A9
:1028500040737B611223BB610023FB6103233B6256
:1028600004237B6207F114031946144800F074FF37
:102870000023FB60104B1B6C0F4A43F400131364DE
:102880000D4B1B6C03F40013FB60FB680022052159
:102890001F2000F08AFE1F2000F0A3FE0022052169
:1028A000202000F082FE202000F09BFE00BF283791
:1028B000BD4680BD00540040003802400004024084
:1028C00080B58AB000AF786007F1140300221A6067
:1028D0005A609A60DA601A617B681B682F4A9342DB
:1028E0001ED100233B612E4B5B6C2D4A43F001034C
:1028F00053642B4B5B6C03F001033B613B6900228B
:102900000521182000F051FE182000F06AFE002278
:102910000521192000F049FE192000F062FE38E080
:102920007B681B681F4A934233D10023FB601C4B1A
:102930005B6C1B4A43F002035364194B5B6C03F05E
:102940000203FB60FB680023BB60154B1B6B144A42
:1029500043F004031363124B1B6B03F00403BB60CF
:10296000BB68C0237B610223BB610023FB610023A2
:102970003B6203237B6207F1140319460A4800F007
:10298000EBFE002205212D2000F00FFE2D2000F08F
:1029900028FE00BF2837BD4680BD00BF00000140B3
:1029A00000380240000401400008024080B58CB0AD
:1029B00000AF786007F11C0300221A605A609A6029
:1029C000DA601A617B681B68B3F1804F4BD100233A
:1029D000BB613F4B1B6C3E4A43F0010313643C4B0D
:1029E0001B6C03F00103BB61BB6900237B61384BA7
:1029F0001B6B374A43F001031363354B1B6B03F02A
:102A000001037B617B6900233B61314B1B6B304AC7
:102A100043F0020313632E4B1B6B03F002033B6175
:102A20003B694FF40043FB6102233B6200237B625E
:102A30000023BB620123FB6207F11C0319462548F2
:102A400000F08AFE0823FB6102233B6200237B62C5
:102A50000023BB620123FB6207F11C0319461E48D9
:102A600000F07AFE30E07B681B681C4A93422BD151
:102A70000023FB60164B1B6C154A43F002031364E2
:102A8000134B1B6C03F00203FB60FB680023BB606D
:102A90000F4B1B6B0E4A43F0010313630C4B1B6B74
:102AA00003F00103BB60BB68C023FB6102233B62F0
:102AB00000237B620023BB620223FB6207F11C033D
:102AC0001946044800F048FE00BF3037BD4680BDBF
:102AD00000380240000002400004024000040040B0
:102AE00080B58AB000AF786007F1140300221A6045
:102AF0005A609A60DA601A617B681B681D4A9342CB
:102B000034D100233B611C4B1B6C1B4A43F0040374
:102B10001364194B1B6C03F004033B613B690023F6
:102B2000FB60154B1B6B144A43F008031363124BF5
:102B30001B6B03F00803FB60FB684FF480537B6161
:102B40000223BB610023FB6100233B6202237B6203
:102B500007F114031946094800F0FEFD0022052183
:102B60001E2000F022FD1E2000F03BFD00BF283794
:102B7000BD4680BD0008004000380240000C024005
:102B800080B588B000AF786007F10C0300221A60AE
:102B90005A609A60DA601A617B681B68124A934235
:102BA0001ED10023BB60114B1B6B104A43F0100376
:102BB00013630E4B1B6B03F01003BB60BB684FF439
:102BC0008043FB6002233B6100237B610023BB61E8
:102BD0000123FB6107F10C031946054800F0BCFD19
:102BE00000BF2037BD4680BD0000014000380240D4
:102BF0000010024080B58AB000AF786007F114037E
:102C000000221A605A609A60DA601A617B681B6859
:102C10001D4A934234D100233B611C4B1B6C1B4A61
:102C200043F480231364194B1B6C03F480233B6132
:102C30003B690023FB60154B1B6B144A43F00403F4
:102C40001363124B1B6B03F00403FB60FB684FF430
:102C500040637B610223BB610023FB6103233B6272
:102C600007237B6207F114031946094800F074FD3D
:102C700000220521272000F098FC272000F0B1FC5D
:102C800000BF2837BD4680BD0048004000380240E4
:102C90000008024080B400AF00BFFDE780B400AF81
:102CA00000BFFDE780B400AF00BFFDE780B400AF18
:102CB00000BFFDE780B400AF00BFFDE780B400AF08
:102CC00000BFBD465DF8047B704780B500AF00F0E3
:102CD0004DFB08F095F90346012B01D008F08CFF5D
:102CE00000BF80BD80B400AF00BFBD465DF8047B6F
:102CF0007047000080B500AF024804F054FB00BFED
:102D000080BD00BFD800002080B500AF024804F0AD
:102D10004AFB00BF80BD00BFD800002080B500AFD7
:102D2000024804F040FB00BF80BD00BFB00100209E
:102D300080B500AF024801F069FB00BF80BD00BF55
:102D40008400002080B500AF024801F0B2FC00BF53
:102D500080BD00BF8400002080B500AF024805F0B0
:102D600093FC00BF80BD00BF4002002080B500AFD3
:102D7000024804F018FB00BF80BD00BFF80100202E
:102D800080B586B000AF7860144A154BD31A7B61CA
:102D90007B693B61134B1B68002B02D1114B124A1C
:102DA0001A60104B1A687B6813443A699A4207D23A
:102DB00009F020FA03460C221A604FF0FF3309E0B5
:102DC000084B1B68FB60074B1A687B681344054A75
:102DD0001360FB6818461837BD4680BD000002200E
:102DE00000040000F80200203052002080B400AF40
:102DF000064BD3F88830054A43F47003C2F8883094
:102E000000BFBD465DF8047B704700BF00ED00E0E9
:102E1000DFF834D00D480E490E4A002302E0D458A2
:102E2000C4500433C4188C42F9D30B4A0B4C002312
:102E300001E013600432A242FBD3FFF7D7FF09F091
:102E4000DFF9FEF741F87047000002200000002083
:102E50006400002050D70008680000203052002095
:102E6000FEE7000080B582B000AF0023FB7126E0D2
:102E7000FB79503BDBB20021184600F02BF8002113
:102E8000002000F027F80021102000F023F8002394
:102E9000BB710DE0BA79FB790D49D2000A441344A5
:102EA0001B780121184600F015F8BB790133BB717E
:102EB00097F90630002BEDDAFB790133FB71FB79D2
:102EC000072BD5D900BF00BF0837BD4680BD00BF66
:102ED000FC02002080B584B000AF03460A46FB71B7
:102EE0001346BB71BB79002B06D001224FF48071D1
:102EF0001C4800F0CDFD05E000224FF48071194818
:102F000000F0C6FD0023FB731EE0002220211548BF
:102F100000F0BEFD97F90730002B05DA01224021B1
:102F2000104800F0B5FD04E0002240210D4800F0FB
:102F3000AFFD012220210B4800F0AAFDFB795B00C8
:102F4000FB71FB7B0133FB73FB7B072BDDD901227C
:102F50004FF48071034800F09BFD00BF1037BD4661
:102F600080BD00BF0010024080B582B000AF0023DA
:102F7000FB7114E00023BB710AE0BA79FB790C49BC
:102F8000D2000A44134400221A70BB790133BB718A
:102F900097F90630002BF0DAFB790133FB71FB79EE
:102FA000072BE7D9FFF75EFF00BF0837BD4680BD9E
:102FB000FC02002080B485B000AF0346FB710B46D5
:102FC000BB7113467B710023FB7397F90730002B0D
:102FD00041DBBB793F2B3ED8BB79DB08DBB2C3F1C9
:102FE0000703BB73BB7903F007037B737B7BC3F1E0
:102FF0000703012202FA03F3FB737B79002B12D043
:10300000FA79BB7B1749D2000A4413441878FA793D
:10301000BB7BF97B0143C8B21249D2000A44134476
:1030200002461A7018E0FA79BB7B0E49D2000A44B6
:1030300013441B785AB297F90F30DB435BB213404D
:1030400059B2FA79BB7BC8B20649D2000A4413448C
:1030500002461A7000E000BF1437BD465DF8047BDD
:10306000704700BFFC02002090B585B000AF044659
:10307000084611461A462346FB710346BB710B46B0
:103080007B7113463B71BB793B737B79203B7B7132
:103090000023BB734DE03B790C2B0BD17A79B97BC4
:1030A000284813465B0013449B0003440B441B78E1
:1030B000FB7307E07A79BB7B234912010A4413446E
:1030C0001B78FB7300237B732DE097F90F30002BE7
:1030D00007DA97F82020B979FB791846FFF76AFFDD
:1030E0000CE097F82030002B0CBF01230023DBB24B
:1030F0001A46B979FB791846FFF75CFFFB7B5B004A
:10310000FB73BB790133BB71BA793B7BD21A3B7934
:103110009A4205D13B7BBB71FB790133FB7105E022
:103120007B7B01337B737B7B072BCED9BB7B01334E
:10313000BB73BA7B3B799A42ADD300BF00BF143753
:10314000BD4690BDA8CC00081CD1000880B584B055
:1031500002AF03463A60FB710B46BB711FE0FB797F
:103160007A2B04D90023FB71BB791033BB71BB7977
:103170003A2B05D90023FB71FB79BB71FFF7F4FEF5
:103180003B681A78B979F879012300930C23FFF78B
:103190006BFFFB790833FB713B6801333B603B6895
:1031A0001B78002BDBD100BF00BF0837BD4680BDB8
:1031B00080B500AF03F084F9414B1B6F404A23F008
:1031C000010313673E4B1B6F3D4A23F00403136753
:1031D00003F08AF9002280213A4800F059FC64206B
:1031E00000F0E4F801228021364800F051FC002173
:1031F000AE20FFF76FFE0021D520FFF76BFE002108
:103200005020FFF767FE0021A820FFF763FE002192
:103210003F20FFF75FFE0021D320FFF75BFE002178
:103220000020FFF757FE00214020FFF753FE00214A
:103230008D20FFF74FFE00211420FFF74BFE0021E9
:103240002020FFF747FE00210220FFF743FE002168
:10325000A120FFF73FFE0021C020FFF73BFE002129
:10326000DA20FFF737FE00211220FFF733FE00219E
:103270008120FFF72FFE0021EF20FFF72BFE00211A
:10328000D920FFF727FE0021F120FFF723FE0021C0
:10329000DB20FFF71FFE00213020FFF71BFE00217F
:1032A000A420FFF717FE0021A620FFF713FE002140
:1032B000AF20FFF70FFEFFF757FE00BF80BD00BF36
:1032C000003802400010024080B500AF0E4B1B6872
:1032D0000D4A43F4007313600B4B1B680A4A43F416
:1032E00080631360084B1B68074A43F480731360C4
:1032F000032000F04FF90F2000F008F8FFF754FA10
:103300000023184680BD00BF003C024080B582B05B
:1033100000AF7860124B1A68124B1B7819464FF4B5
:103320007A73B3FBF1F3B2FBF3F3184600F067F9DD
:103330000346002B01D001230EE07B680F2B0AD837
:10334000002279684FF0FF3000F02FF9064A7B68C1
:103350001360002300E0012318460837BD4680BDF6
:10336000040000200C0000200800002080B400AF02
:10337000064B1B781A46064B1B681344044A13601D
:1033800000BFBD465DF8047B704700BF0C00002005
:10339000FC06002080B400AF034B1B681846BD46F6
:1033A0005DF8047B704700BFFC06002080B584B048
:1033B00000AF7860FFF7EEFFB8607B68FB60FB68EA
:1033C000B3F1FF3F05D00A4B1B781A46FB68134444
:1033D000FB6000BFFFF7DEFF0246BB68D31AFA6846
:1033E0009A42F7D800BF00BF1037BD4680BD00BF6E
:1033F0000C00002080B485B000AF78607B6803F0DB
:103400000703FB600C4BDB68BB60BA684FF6FF0339
:103410001340BB60FB681A02BB68134343F0BF63F1
:1034200043F40033BB60044ABB68D36000BF143769
:10343000BD465DF8047B704700ED00E080B400AF4E
:10344000044BDB681B0A03F007031846BD465DF812
:10345000047B704700ED00E080B483B000AF03460A
:10346000FB7197F90730002B0BDBFB7903F01F0290
:10347000074997F907305B09012000FA02F241F889
:10348000232000BF0C37BD465DF8047B704700BFAA
:1034900000E100E080B483B000AF03463960FB7107
:1034A00097F90730002B0ADB3B68DAB20C4997F931
:1034B00007301201D2B20B4483F800230AE03B68C4
:1034C000DAB20849FB7903F00F03043B1201D2B2D0
:1034D0000B441A7600BF0C37BD465DF8047B70477D
:1034E00000E100E000ED00E080B489B000AFF860DA
:1034F000B9607A60FB6803F00703FB61FB69C3F105
:103500000703042B28BF0423BB61FB690433062B8C
:1035100002D9FB69033B00E000237B614FF0FF32DF
:10352000BB6902FA03F3DA43BB681A407B699A402D
:103530004FF0FF317B6901FA03F3D9437B680B40FD
:10354000134318462437BD465DF8047B70470000DE
:1035500080B582B000AF78607B68013BB3F1807FBB
:1035600001D301230FE00A4A7B68013B53600F211E
:103570004FF0FF30FFF78EFF054B00229A60044B9F
:1035800007221A60002318460837BD4680BD00BFD9
:1035900010E000E080B582B000AF78607868FFF797
:1035A00029FF00BF0837BD4680BD80B586B000AF9B
:1035B0000346B9607A60FB7300237B61FFF73EFF2F
:1035C00078617A68B9687869FFF78EFF024697F9E3
:1035D0000F3011461846FFF75DFF00BF1837BD4694
:1035E00080BD80B582B000AF0346FB7197F907300C
:1035F0001846FFF731FF00BF0837BD4680BD80B5D4
:1036000082B000AF78607868FFF7A2FF03461846E3
:103610000837BD4680BD80B584B000AF78607B6858
:103620009B6DFB60FFF7B6FEB8607B6893F83530A2
:10363000DBB2022B08D07B6880225A657B680022AF
:1036400083F83420012352E07B681B681A687B688A
:103650001B6822F016021A607B681B685A697B6837
:103660001B6822F080025A617B681B6C002B03D11F
:103670007B689B6C002B07D07B681B681A687B6893
:103680001B6822F008021A607B681B681A687B6856
:103690001B6822F001021A6013E0FFF77BFE02466E
:1036A000BB68D31A052B0CD97B6820225A657B682E
:1036B000032283F835207B68002283F8342003231B
:1036C00015E07B681B681B6803F00103002BE4D145
:1036D0007B68DB6D3F229A40FB689A607B68012221
:1036E00083F835207B68002283F8342000231846B5
:1036F0001037BD4680BD80B483B000AF78607B6872
:1037000093F83530DBB2022B04D07B6880225A65F7
:1037100001230CE07B68052283F835207B681B6859
:103720001A687B681B6822F001021A6000231846A1
:103730000C37BD465DF8047B704780B483B000AFA2
:1037400078607B6893F83530DBB218460C37BD469D
:103750005DF8047B7047000080B489B000AF7860EA
:10376000396000237B6100233B610023BB610023A0
:10377000FB616BE10122FB6902FA03F37B613B68A9
:103780001B687A6913403B613A697B699A4240F051
:103790005A813B685B6803F00303012B05D03B684B
:1037A0005B6803F00303022B30D17B689B68BB612D
:1037B000FB695B00032202FA03F3DB43BA6913409F
:1037C000BB613B68DA68FB695B0002FA03F3BA6924
:1037D0001343BB617B68BA699A607B685B68BB61B5
:1037E0000122FB6902FA03F3DB43BA691340BB61B0
:1037F0003B685B681B0903F00102FB6902FA03F3F3
:10380000BA691343BB617B68BA695A603B685B68FD
:1038100003F00303032B17D07B68DB68BB61FB69F4
:103820005B00032202FA03F3DB43BA691340BB6176
:103830003B689A68FB695B0002FA03F3BA691343B9
:10384000BB617B68BA69DA603B685B6803F00303BD
:10385000022B23D1FB69DA087B68083253F8223047
:10386000BB61FB6903F007039B000F2202FA03F31D
:10387000DB43BA691340BB613B681A69FB6903F01B
:1038800007039B0002FA03F3BA691343BB61FB69A8
:10389000DA087B680832B96943F822107B681B6834
:1038A000BB61FB695B00032202FA03F3DB43BA69E5
:1038B0001340BB613B685B6803F00302FB695B007C
:1038C00002FA03F3BA691343BB617B68BA691A60F1
:1038D0003B685B6803F44033002B00F0B4800023A6
:1038E000FB60604B5B6C5F4A43F4804353645D4B09
:1038F0005B6C03F48043FB60FB685B4AFB699B08DD
:10390000023352F82330BB61FB6903F003039B00D1
:103910000F2202FA03F3DB43BA691340BB617B68F1
:10392000524A93422BD07B68514A934225D07B6800
:10393000504A93421FD07B684F4A934219D07B680C
:103940004E4A934213D07B684D4A93420DD07B6818
:103950004C4A934207D07B684B4A934201D10723DC
:103960000EE008230CE006230AE0052308E0042308
:1039700006E0032304E0022302E0012300E0002329
:10398000FA6902F0030292009340BA691343BB61E3
:103990003549FB699B080233BA6941F823203B4B48
:1039A0009B68BB613B69DB43BA691340BB613B6801
:1039B0005B6803F48013002B03D0BA693B6913439F
:1039C000BB61324ABB699360304BDB68BB613B69CA
:1039D000DB43BA691340BB613B685B6803F40013C7
:1039E000002B03D0BA693B691343BB61274ABB690B
:1039F000D360264B5B68BB613B69DB43BA6913400C
:103A0000BB613B685B6803F40033002B03D0BA69E9
:103A10003B691343BB611D4ABB6953601B4B1B6869
:103A2000BB613B69DB43BA691340BB613B685B68C0
:103A300003F48033002B03D0BA693B691343BB61A5
:103A4000124ABB691360FB690133FB61FB690F2BF1
:103A50007FF690AE00BF00BF2437BD465DF8047B03
:103A6000704700BF003802400038014000000240AB
:103A70000004024000080240000C02400010024016
:103A80000014024000180240001C0240003C0140AB
:103A900080B483B000AF78600B467B8013467B70A8
:103AA0007B78002B03D07A887B689A6103E07B885F
:103AB0001A047B689A6100BF0C37BD465DF8047B31
:103AC000704780B485B000AF78600B467B807B6820
:103AD0005B69FB607A88FB6813401A04FB68D94372
:103AE0007B880B401A437B689A6100BF1437BD4640
:103AF0005DF8047B7047000080B584B000AF78604B
:103B00007B68002B01D101232BE17B6893F83D30CA
:103B1000DBB2002B06D17B68002283F83C2078685A
:103B2000FEF776FE7B68242283F83D207B681B68C5
:103B30001A687B681B6822F001021A607B681B68A8
:103B40001A687B681B6842F400421A607B681B6835
:103B50001A687B681B6822F400421A6003F008F9B7
:103B6000F8607B685B68814A934207D8FB68804AAB
:103B7000934294BF01230023DBB206E0FB687D4A39
:103B8000934294BF01230023DBB2002B01D0012319
:103B9000E7E0FB68784AA2FB03239B0CBB607B68D1
:103BA0001B685B6823F03F017B681B68BA680A43A7
:103BB0005A607B681B681B6A23F03F017B685B6867
:103BC0006A4A934202D8BB68013309E0BB684FF4EC
:103BD000967202FB03F3694AA2FB03239B0901339C
:103BE0007A6812680B4313627B681B68DB6923F4F5
:103BF0004F4222F0FF027B685B685C498B4219D818
:103C0000FB68591E7B685B685B00B1FBF3F3591CD2
:103C100040F6FC730B40002B0AD0FB68591E7B68F2
:103C20005B685B00B1FBF3F30133C3F30B0351E0BB
:103C300004234FE07B689B68002B11D1FB68581E62
:103C40007B6859680B465B000B44B0FBF3F3013310
:103C5000C3F30B03002B0CBF01230023DBB212E0E4
:103C6000FB68581E7B6859680B469B000B44990003
:103C70000B44B0FBF3F30133C3F30B03002B0CBF76
:103C800001230023DBB2002B01D0012322E07B685B
:103C90009B68002B0ED1FB68581E7B6859680B4649
:103CA0005B000B44B0FBF3F30133C3F30B0343F4AA
:103CB00000430FE0FB68581E7B6859680B469B0069
:103CC0000B4499000B44B0FBF3F30133C3F30B0334
:103CD00043F44043796809681343CB617B681B68F0
:103CE0001B6823F0C0017B68DA697B681B6A1A4392
:103CF0007B681B680A431A607B681B689B6823F417
:103D0000034323F0FF037A6811697A68D26811438C
:103D10007A6812680B4393607B681B68DB6823F04A
:103D2000FF017B685A697B689B691A437B681B6843
:103D30000A43DA607B681B681A687B681B6842F07C
:103D400001021A607B6800221A647B68202283F8D3
:103D50003D207B6800221A637B68002283F83E20A6
:103D6000002318461037BD4680BD00BFA086010065
:103D70007F841E00FF083D0083DE1B43D34D62108D
:103D800080B483B000AF78607B681B685B6903F028
:103D90008003802B03D17B681B6800221A6100BF5F
:103DA0000C37BD465DF8047B7047000080B588B0D5
:103DB00002AFF8607A601A460B467B8113463B815E
:103DC000FFF7E8FA7861FB6893F83D30DBB2202B0F
:103DD00040F0E0807B690093192301227049F86864
:103DE00002F0EAF80346002B01D00223D3E0FB687F
:103DF00093F83C30012B01D10223CCE0FB68012277
:103E000083F83C20FB681B681B6803F00103012B4F
:103E100007D0FB681B681A68FB681B6842F0010248
:103E20001A60FB681B681A68FB681B6822F4006252
:103E30001A60FB68212283F83D20FB68102283F87A
:103E40003E20FB6800221A64FB687A685A62FB68AD
:103E50003A895A85FB685B8D9AB2FB681A85FB68C4
:103E6000504ADA6279897B693A6AF86801F0ACFEF7
:103E70000346002B01D001238DE000233B61FB684A
:103E80001B685B693B61FB681B689B693B613B6925
:103E900066E07A69396AF86802F0A8F90346002BEF
:103EA0000DD0FB681B6C042B07D1FB681B681A68DC
:103EB000FB681B6842F400721A6001236BE0FB6828
:103EC0005B6A1A78FB681B681A61FB685B6A5A1C9C
:103ED000FB685A62FB685B8D9BB2013B9AB2FB6840
:103EE0005A85FB681B8D013B9AB2FB681A85FB68FB
:103EF0001B685B6903F00403042B1BD1FB681B8D5B
:103F0000002B17D0FB685B6A1A78FB681B681A6184
:103F1000FB685B6A5A1CFB685A62FB685B8D9BB24C
:103F2000013B9AB2FB685A85FB681B8D013B9AB234
:103F3000FB681A857A69396AF86802F09FF90346C6
:103F4000002B0DD0FB681B6C042B07D1FB681B6892
:103F50001A68FB681B6842F400721A6001231AE0B9
:103F6000FB681B8D002B94D1FB681B681A68FB68EB
:103F70001B6842F400721A60FB68202283F83D201F
:103F8000FB68002283F83E20FB68002283F83C2077
:103F9000002300E0022318461837BD4680BD00BF4D
:103FA000020010000000FFFF80B58CB002AFF86087
:103FB0007A601A460B467B8113463B81FFF7EAF98C
:103FC0007862FB6893F83D30DBB2202B40F017821B
:103FD0007B6A0093192301227C49F86801F0ECFF09
:103FE0000346002B01D002230AE2FB6893F83C3021
:103FF000012B01D1022303E2FB68012283F83C205C
:10400000FB681B681B6803F00103012B07D0FB68EA
:104010001B681A68FB681B6842F001021A60FB68A3
:104020001B681A68FB681B6822F400621A60FB6850
:10403000222283F83D20FB68102283F83E20FB6893
:1040400000221A64FB687A685A62FB683A895A85CA
:10405000FB685B8D9AB2FB681A85FB685C4ADA6282
:1040600079897B6A3A6BF86801F030FE0346002BD1
:1040700001D00123C4E1FB681B8D002B13D1002369
:104080003B62FB681B685B693B62FB681B689B6962
:104090003B623B6AFB681B681A68FB681B6842F45A
:1040A00000721A6098E1FB681B8D012B1BD1FB6825
:1040B0001B681A68FB681B6822F480621A60002380
:1040C000FB61FB681B685B69FB61FB681B689B69A4
:1040D000FB61FB69FB681B681A68FB681B6842F49C
:1040E00000721A6078E1FB681B8D022B1BD1FB6804
:1040F0001B681A68FB681B6822F480621A60FB6800
:104100001B681A68FB681B6842F400621A6000238F
:10411000BB61FB681B685B69BB61FB681B689B69D3
:10412000BB61BB6958E1FB681B681A68FB681B68C8
:1041300042F480621A6000237B61FB681B685B6944
:104140007B61FB681B689B697B617B6944E1FB6861
:104150001B8D032B00F2F180FB681B8D012B23D1FB
:104160007A6A396BF86802F003F90346002B01D034
:10417000012345E1FB681B681A69FB685B6AD2B2E0
:104180001A70FB685B6A5A1CFB685A62FB681B8DDD
:10419000013B9AB2FB681A85FB685B8D9BB2013BC1
:1041A0009AB2FB685A8517E1FB681B8D022B4ED132
:1041B0007B6A00933B6B00220649F86801F0FCFE25
:1041C0000346002B08D001231AE100BF02001000B3
:1041D0000000FFFF04000100FB681B681A68FB6811
:1041E0001B6842F400721A60FB681B681A69FB685E
:1041F0005B6AD2B21A70FB685B6A5A1CFB685A622F
:10420000FB681B8D013B9AB2FB681A85FB685B8DCE
:104210009BB2013B9AB2FB685A85FB681B681A691E
:10422000FB685B6AD2B21A70FB685B6A5A1CFB6857
:104230005A62FB681B8D013B9AB2FB681A85FB68CA
:104240005B8D9BB2013B9AB2FB685A85C4E07B6AE6
:1042500000933B6B00226C49F86801F0ADFE034609
:10426000002B01D00123CBE0FB681B681A68FB68B8
:104270001B6822F480621A60FB681B681A69FB687D
:104280005B6AD2B21A70FB685B6A5A1CFB685A629E
:10429000FB681B8D013B9AB2FB681A85FB685B8D3E
:1042A0009BB2013B9AB2FB685A857B6A00933B6BD9
:1042B00000225549F86801F07FFE0346002B01D02B
:1042C00001239DE0FB681B681A68FB681B6842F4C9
:1042D00000721A60FB681B681A69FB685B6AD2B2DD
:1042E0001A70FB685B6A5A1CFB685A62FB681B8D7C
:1042F000013B9AB2FB681A85FB685B8D9BB2013B60
:104300009AB2FB685A85FB681B681A69FB685B6A8E
:10431000D2B21A70FB685B6A5A1CFB685A62FB686F
:104320001B8D013B9AB2FB681A85FB685B8D9BB2C3
:10433000013B9AB2FB685A854EE07A6A396BF8689D
:1043400002F016F80346002B01D0012358E0FB6869
:104350001B681A69FB685B6AD2B21A70FB685B6AF9
:104360005A1CFB685A62FB681B8D013B9AB2FB68C2
:104370001A85FB685B8D9BB2013B9AB2FB685A853C
:10438000FB681B685B6903F00403042B24D1FB6802
:104390001B8D032B07D1FB681B681A68FB681B6821
:1043A00022F480621A60FB681B681A69FB685B6A0A
:1043B000D2B21A70FB685B6A5A1CFB685A62FB68CF
:1043C0001B8D013B9AB2FB681A85FB685B8D9BB223
:1043D000013B9AB2FB685A85FB681B8D002B7FF46A
:1043E000B6AEFB68202283F83D20FB68002283F8EC
:1043F0003E20FB68002283F83C20002300E00223DB
:1044000018462837BD4680BD0400010080B588B03D
:1044100000AF78600023BB617B681B685B687B61D1
:104420007B68DB6A3B617B6893F83E30FB737B689B
:1044300093F83D30BB73FB7B102B03D0FB7B402BF1
:1044400040F0B1807B681B689B69BB617B681B681F
:104450005B69FB61FB6903F00103002B0DD13B6934
:10446000B3F52A0F03D03B69B3F12A4F01D10123E1
:1044700000E00023012B00F01481FB6903F001032D
:10448000002B0BD07B6903F40073002B06D07868F7
:1044900001F0FAFF786800F07AFD83E0FB6903F031
:1044A0000803002B08D07B6903F40073002B03D0B2
:1044B000786800F0F2FD75E0FB6903F00203002B61
:1044C00008D07B6903F40073002B03D0786800F0F8
:1044D0000EFE67E0BB6903F00403002B36D07B6857
:1044E0001B685B6803F40063B3F5006F00F0DB80CA
:1044F000FB6903F08003002B0DD07B6903F480631C
:10450000002B08D0FB6903F00403002B03D178686B
:1045100000F0D6F946E0FB6903F00403002B00F03D
:10452000C2807B6903F40073002B00F0BC80BB7B6E
:10453000212B03D1786800F05FFAB4E0FB7B402BBD
:1045400040F0B180786800F0CDFAACE07B681B6881
:104550005B6803F40063B3F5006F00F0A480FB69AF
:1045600003F04003002B0DD07B6903F48063002B24
:1045700008D0FB6903F00403002B03D1786800F036
:1045800049FB0FE0FB6903F00403002B00F08B8074
:104590007B6903F40073002B00F08580786800F0DD
:1045A00001FC80E07FE07B681B6C002B04D07B6803
:1045B0001B685B69FB6107E07B681B689B69BB61EB
:1045C0007B681B685B69FB61FB6903F00203002BDE
:1045D00011D07B6903F40073002B0CD07B681B6C3B
:1045E000002B03D07B681B689B69BB61B969786845
:1045F00000F0CCFF5AE0FB6903F01003002B08D059
:104600007B6903F40073002B03D0786801F006F88F
:104610004CE0BB7B212B02D0BB7B292B20D1FB693B
:1046200003F08003002B0DD07B6903F48063002B23
:1046300008D0FB6903F00403002B03D1786800F075
:10464000E7FE32E0FB6903F00403002B2DD07B6909
:1046500003F40073002B28D0786800F016FF24E0E4
:10466000FB6903F04003002B0DD07B6903F48063EA
:10467000002B08D0FB6903F00403002B03D17868FA
:1046800000F024FF12E0FB6903F00403002B0DD0BF
:104690007B6903F40073002B08D0786800F054FFA6
:1046A00004E000BF02E000BF00E000BF2037BD46CD
:1046B00080BD80B58AB000AF78607B681B685B699D
:1046C0003B627B681B685B68FB6100237B627B68E5
:1046D00093F83E30FB763B6A03F48073002B0DD0D9
:1046E000FB6903F48073002B08D07B6A43F001035D
:1046F0007B627B681B686FF480725A613B6A03F4CB
:104700000073002B0DD0FB6903F48073002B08D0DD
:104710007B6A43F002037B627B681B686FF4007264
:104720005A613B6A03F48063002B3ED0FB6903F4BB
:104730008073002B39D0FB7EBB767B685B8D9BB290
:104740007B617B6893F83D30FB747B681B6BFB607F
:10475000BB7E202B12D17B69002B0FD1FB7C212B40
:1047600008D0FB7C292B05D0FB7C282B06D1FB68CD
:10477000212B03D1786801F081F816E07B681B6873
:104780006FF480625A617B6A43F004037B62FB7EB4
:10479000102B02D0FB7E402B07D17B681B681A6868
:1047A0007B681B6842F400721A603B6A03F4006382
:1047B000002B0DD0FB6903F48073002B08D07B6ABB
:1047C00043F008037B627B681B686FF400625A61E8
:1047D0007B6A002B08D07B681A6C7B6A1A437B6863
:1047E0001A64786801F0BEF800BF2837BD4680BD66
:1047F00080B483B000AF786000BF0C37BD465DF871
:10480000047B704780B483B000AF786000BF0C3782
:10481000BD465DF8047B704780B483B000AF78601C
:1048200000BF0C37BD465DF8047B704780B483B091
:1048300000AF786000BF0C37BD465DF8047B704761
:1048400080B483B000AF78600B46FB7013463B80AA
:1048500000BF0C37BD465DF8047B704780B483B061
:1048600000AF786000BF0C37BD465DF8047B704731
:1048700080B483B000AF786000BF0C37BD465DF8F0
:10488000047B704780B483B000AF786000BF0C3702
:10489000BD465DF8047B704780B483B000AF78609C
:1048A00000BF0C37BD465DF8047B704780B483B011
:1048B00000AF786000BF0C37BD465DF8047B7047E1
:1048C00080B584B000AF78607B6893F83D30FB73AF
:1048D0007B6893F83E30BB737B68DB6ABB607B68A8
:1048E0001B8D002B50D1FB7B212B4DD1BB68082B9E
:1048F0001DD0BB68202B1AD0BB6813F5803F16D0A3
:104900007B681B685A687B681B6822F4E0625A6007
:104910007B6811221A637B68002283F83E207B6843
:10492000202283F83D207868FFF762FF60E07B6813
:104930001B685A687B681B6822F4E0625A607B68D7
:104940001B681A687B681B6842F400721A607B68F7
:1049500000221A637B68202283F83D207B6893F84D
:104960003E30DBB2402B07D17B68002283F83E202B
:104970007868FFF77DFF3BE07B68002283F83E20EC
:104980007868FFF735FF33E0FB7B212B05D0BB7B3D
:10499000402B2DD1FB7B222B2AD17B685B8D9BB2D8
:1049A000002B08D17B681B685A687B681B6822F45F
:1049B00080625A601CE07B6893F83E30DBB2402B8B
:1049C00003D1786800F08EF812E07B685B6A1A7891
:1049D0007B681B681A617B685B6A5A1C7B685A6239
:1049E0007B685B8D9BB2013B9AB27B685A85FFE77F
:1049F00000BF1037BD4680BD80B584B000AF786081
:104A00007B68DB6AFB607B6893F83D30DBB2212B6F
:104A100064D17B685B8D9BB2002B12D07B685B6A94
:104A20001A787B681B681A617B685B6A5A1C7B6812
:104A30005A627B685B8D9BB2013B9AB27B685A8558
:104A40004CE0FB68082B1DD0FB68202B1AD0FB68BC
:104A500013F5803F16D07B681B685A687B681B681B
:104A600022F4E0625A607B6811221A637B6800229C
:104A700083F83E207B68202283F83D207868FFF78A
:104A8000B7FE2BE07B681B685A687B681B6822F4C2
:104A9000E0625A607B681B681A687B681B6842F496
:104AA00000721A607B6800221A637B68202283F8F8
:104AB0003D207B6893F83E30DBB2402B07D17B680A
:104AC000002283F83E207868FFF7D2FE06E07B687C
:104AD000002283F83E207868FFF78AFE00BF103777
:104AE000BD4680BD80B584B000AF78607B6893F828
:104AF0003D30FB737B681B6D002B1DD17B68DB6C2D
:104B0000012B0BD17B689B6CDAB27B681B681A6146
:104B10007B681B6D9A1C7B681A6577E07B689B6CD1
:104B20009BB21B12DAB27B681B681A617B681B6D33
:104B30005A1C7B681A6569E07B681B6D012B0BD1E1
:104B40007B689B6CDAB27B681B681A617B681B6DA3
:104B50005A1C7B681A6559E07B681B6D022B52D189
:104B6000FB7B222B0DD17B681B681A687B681B6856
:104B700042F480721A607B681B6D5A1C7B681A6550
:104B800044E07B685B8D9BB2002B15D0FB7B212B17
:104B900012D17B685B6A1A787B681B681A617B6834
:104BA0005B6A5A1C7B685A627B685B8D9BB2013BD7
:104BB0009AB27B685A8529E07B685B8D9BB2002B9B
:104BC00024D1FB7B212B21D17B681B685A687B6831
:104BD0001B6822F4E0625A607B681B681A687B6875
:104BE0001B6842F400721A607B6800221A637B68BB
:104BF000202283F83D207B68002283F83E207868DD
:104C0000FFF736FE02E07868FFF7BAF800BF10370A
:104C1000BD4680BD80B584B000AF78607B6893F8F6
:104C20003D30DBB2222B40F0B9807B68DB6AFB6051
:104C30007B685B8D9BB2BB60BB68032B21D97B6813
:104C40001B681A697B685B6AD2B21A707B685B6A00
:104C50005A1C7B685A627B685B8D9BB2013B9AB29F
:104C60007B685A857B685B8D9BB2032B40F09680F6
:104C70007B681B685A687B681B6822F480625A60F4
:104C80008CE07B68DB6A022B7FD0BB68012B02D0F3
:104C9000BB68002B79D1786801F038FB0346002B04
:104CA0004CD17B681B681A687B681B6822F48062A1
:104CB0001A607B681B685A687B681B6822F4E06294
:104CC0005A607B681B681A697B685B6AD2B21A708B
:104CD0007B685B6A5A1C7B685A627B685B8D9BB2FF
:104CE000013B9AB27B685A857B68202283F83D207D
:104CF0007B6893F83E30DBB2402B0AD17B68002200
:104D000083F83E207B6800221A637868FFF7BAFDBB
:104D100044E07B68002283F83E20FB68082B02D029
:104D2000FB68202B03D17B6800221A6302E07B68BA
:104D300012221A637868FFF765FD2FE07B681B6815
:104D40005A687B681B6822F4E0625A607B681B68C3
:104D50001A697B685B6AD2B21A707B685B6A5A1CFC
:104D60007B685A627B685B8D9BB2013B9AB27B6821
:104D70005A857B68202283F83D207B68002283F8D7
:104D80003E207868FFF788FD08E07B681B685A685A
:104D90007B681B6822F480625A60FFE700BF10370F
:104DA000BD4680BD80B584B000AF78607B68DB6AAB
:104DB000FB607B685B8D9BB2042B1BD17B681B68FF
:104DC0005A687B681B6822F480625A607B681B68A3
:104DD0001A697B685B6AD2B21A707B685B6A5A1C7C
:104DE0007B685A627B685B8D9BB2013B9AB27B68A1
:104DF0005A85C8E07B685B8D9BB2032B29D17B6809
:104E00001B685A687B681B6822F480625A60FB68E2
:104E1000042B0AD0FB68022B07D07B681B681A683A
:104E20007B681B6822F480621A607B681B681A69C1
:104E30007B685B6AD2B21A707B685B6A5A1C7B68BB
:104E40005A627B685B8D9BB2013B9AB27B685A8544
:104E500099E07B685B8D9BB2022B40F08180FB6800
:104E6000012B02D0FB68102B08D17B681B681A68E5
:104E70007B681B6822F480621A6019E0FB68042BCF
:104E800002D0FB68022B08D17B681B681A687B681C
:104E90001B6842F480621A600AE0FB68102B07D09E
:104EA0007B681B681A687B681B6842F400721A6092
:104EB0007B681B681A697B685B6AD2B21A707B6870
:104EC0005B6A5A1C7B685A627B685B8D9BB2013BB4
:104ED0009AB27B685A857B681B681A697B685B6A33
:104EE000D2B21A707B685B6A5A1C7B685A627B6814
:104EF0005B8D9BB2013B9AB27B685A857B681B68CD
:104F00005A687B681B6822F440725A607B682022D2
:104F100083F83D207B6893F83E30DBB2402B0AD10A
:104F20007B68002283F83E207B6800221A63786841
:104F3000FFF7A8FC27E07B68002283F83E20FB688F
:104F4000082B02D0FB68202B03D17B6800221A6358
:104F500002E07B6812221A637868FFF753FC12E0C4
:104F60007B681B681A697B685B6AD2B21A707B68BF
:104F70005B6A5A1C7B685A627B685B8D9BB2013B03
:104F80009AB27B685A8500BF1037BD4680BD80B499
:104F900083B000AF78607B6893F83E30DBB2402B83
:104FA00017D17B681B6D002B09D17B685B6CDBB272
:104FB0001A467B681B6802F0FE021A6167E07B6894
:104FC0005B6CDBB243F00103DAB27B681B681A61E9
:104FD0005DE07B681B69B3F5804F33D17B6893F844
:104FE0003D30DBB2212B09D17B685B6CDBB21A460A
:104FF0007B681B6802F0FE021A6108E07B685B6C4C
:10500000DBB243F00103DAB27B681B681A617B688C
:105010005B6B002B04D07B685B6BDB6B002B08D1D8
:105020007B689B6B002B32D07B689B6BDB6B002B10
:105030002DD07B681B685A687B681B6842F400624D
:105040005A6024E07B681B6D002B0ED17B685B6C83
:105050009BB2DB11DBB203F00603DBB263F00F039C
:10506000DAB27B681B681A6111E07B681B6D012B4B
:105070000DD17B685B6C9BB2DB11DBB203F00603E6
:10508000DBB263F00E03DAB27B681B681A6100BF03
:105090000C37BD465DF8047B704780B483B000AF29
:1050A00078607B685B6CDAB27B681B681A617B682E
:1050B0005B6B002B04D07B685B6BDB6B002B08D138
:1050C0007B689B6B002B0CD07B689B6BDB6B002B96
:1050D00007D07B681B685A687B681B6842F40062D3
:1050E0005A6000BF0C37BD465DF8047B704780B442
:1050F00091B000AF78607B6893F83E3087F83F301E
:105100007B68DB6ABB637B681B6B7B637B6893F8A4
:105110003D30DBB2222B40F069817B681B6D002B98
:105120000FD197F83F30402B0BD100233B637B68B6
:105130001B685B693B637B681B689B693B633B6BDC
:1051400060E17B681B6D002B1DD17B681B69B3F58B
:10515000404F18D10023FB627B681B685B69FB62D0
:105160007B681B689B69FB62FB6A7B681B681A682B
:105170007B681B6842F480721A607B681B6D5A1C46
:105180007B681A653EE17B685B8D9BB2002B13D177
:105190000023BB627B681B685B69BB627B681B6822
:1051A0009B69BB62BB6A7B681B681A687B681B686B
:1051B00042F400721A6015E17B685B8D9BB2012B93
:1051C00040F08A80BB6B13F5803F37D17B681B684A
:1051D0001A687B681B6822F480621A607B681B680F
:1051E0005B6803F40063B3F5006F13D17B681B6841
:1051F0001A687B681B6822F480621A6000237B6255
:105200007B681B685B697B627B681B689B697B6250
:105210007B6AE7E000233B627B681B685B693B625B
:105220007B681B689B693B623B6A7B681B681A68EA
:105230007B681B6842F400721A60D3E0BB6B082BDA
:105240002ED0BB6B202B2BD07B6B122B02D1BB6BD8
:10525000012B25D1BB6B042B0ED0BB6B022B0BD0CB
:10526000BB6B102B08D07B681B681A687B681B68B7
:1052700022F480621A6007E07B681B681A687B680A
:105280001B6842F480621A600023FB617B681B6824
:105290005B69FB617B681B689B69FB61FB69A1E043
:1052A0007B681B681A687B681B6822F480621A603E
:1052B0000023BB617B681B685B69BB617B681B6803
:1052C0009B69BB61BB697B681B681A687B681B684C
:1052D00042F400721A6085E07B685B8D9BB2022B02
:1052E0004DD1BB6B042B16D0BB6B022B13D0BB6B09
:1052F000102B10D07B681B681A687B681B6822F42F
:1053000080621A607B681B681A687B681B6842F4BD
:1053100000621A6007E07B681B681A687B681B687C
:1053200042F480621A607B681B685B6803F4006368
:10533000B3F5006F17D1BB6B13F5803F0BD0BB6B80
:10534000012B08D0BB6B082B05D0BB6B102B02D0F8
:10535000BB6B202B07D17B681B685A687B681B6876
:1053600042F480525A6000237B617B681B685B6952
:105370007B617B681B689B697B617B6932E07B6832
:105380001B681A687B681B6842F480621A607B683D
:105390001B685B6803F40063B3F5006F17D1BB6B48
:1053A00013F5803F0BD0BB6B012B08D0BB6B082BD8
:1053B00005D0BB6B102B02D0BB6B202B07D17B68B9
:1053C0001B685A687B681B6842F480525A6000234D
:1053D0003B617B681B685B693B617B681B689B6901
:1053E0003B613B697B6800221A650BE00023FB6090
:1053F0007B681B685B69FB607B681B689B69FB6063
:10540000FB68FFE700BF4437BD465DF8047B70478B
:1054100080B584B000AF78607B6893F83D30FB7353
:105420007B685B8D9BB2002B2BD07B685B6A1A7804
:105430007B681B681A617B685B6A5A1C7B685A62CE
:105440007B685B8D9BB2013B9AB27B685A857B6817
:105450005B8D9BB2002B14D1FB7B292B11D17B6878
:105460001B685A687B681B6822F480625A607B68FC
:1054700021221A637B68282283F83D207868FFF791
:10548000CBF900BF1037BD4680BD80B483B000AFFC
:1054900078607B685B8D9BB2002B11D07B685B6A68
:1054A0001A787B681B681A617B685B6A5A1C7B6888
:1054B0005A627B685B8D9BB2013B9AB27B685A85CE
:1054C00000BF0C37BD465DF8047B704780B584B0E3
:1054D00000AF78607B6893F83D30FB737B685B8D31
:1054E0009BB2002B2CD07B681B681A697B685B6AB7
:1054F000D2B21A707B685B6A5A1C7B685A627B68FE
:105500005B8D9BB2013B9AB27B685A857B685B8D51
:105510009BB2002B14D1FB7B2A2B11D17B681B681B
:105520005A687B681B6822F480625A607B6822227A
:105530001A637B68282283F83D207868FFF776F9A4
:1055400000BF1037BD4680BD80B483B000AF786027
:105550007B685B8D9BB2002B12D07B681B681A693D
:105560007B685B6AD2B21A707B685B6A5A1C7B6884
:105570005A627B685B8D9BB2013B9AB27B685A850D
:1055800000BF0C37BD465DF8047B704780B584B022
:1055900000AF786039600023FB737B6893F83D307F
:1055A000DBB203F02803282B25D17B681B685A68DF
:1055B0007B681B6822F480625A603B6803F0040336
:1055C000002B01D10123FB733B6803F08003002B08
:1055D00003D17B68DB68BB8102E07B689B69BB8190
:1055E0007B68002283F83C20BA89FB7B19467868E7
:1055F000FFF726F90EE00023BB607B681B685B6940
:10560000BB607B681B689B69BB60BB687B680022D2
:1056100083F83C2000BF1037BD4680BD80B584B004
:1056200000AF78607B6893F83D30FB737B681B6844
:105630005A687B681B6822F4E0625A600023BB60F2
:105640007B681B685B69BB607B681B681A687B684A
:105650001B6842F001021A60BB687B681B681A680D
:105660007B681B6822F480621A607B681B685B6839
:1056700003F40063B3F5006F72D1FB7B222B02D0E1
:10568000FB7B2A2B35D17B689B6B1B685B689AB2CE
:105690007B685A857B685B8D9BB2002B05D07B684D
:1056A0001B6C43F004027B681A647B681B685A68B1
:1056B0007B681B6822F400625A607B689B6B18460B
:1056C000FEF73BF80346012B49D07B689B6B694A88
:1056D0001A657B689B6B1846FEF70DF80346002B96
:1056E0003DD07B689B6B1B6D7A68926B1046984728
:1056F00035E07B685B6B1B685B689AB27B685A8598
:105700007B685B8D9BB2002B05D07B681B6C43F0E4
:1057100004027B681A647B681B685A687B681B6894
:1057200022F400625A607B685B6B1846FEF705F84E
:105730000346012B14D07B685B6B4E4A1A657B686D
:105740005B6B1846FDF7D7FF0346002B08D07B683C
:105750005B6B1B6D7A68526B1046984700E000BF88
:105760007B685B8D9BB2002B3ED07B681B685B69BE
:1057700003F00403042B12D17B681B681A697B6851
:105780005B6AD2B21A707B685B6A5A1C7B685A6289
:105790007B685B8D9BB2013B9AB27B685A857B68C4
:1057A0001B685B6903F04003402B12D17B681B68C8
:1057B0001A697B685B6AD2B21A707B685B6A5A1C92
:1057C0007B685A627B685B8D9BB2013B9AB27B68B7
:1057D0005A857B685B8D9BB2002B05D07B681B6C68
:1057E00043F004027B681A647B681B6C002B03D0B7
:1057F000786800F0B7F839E0FB7B2A2B09D17B6889
:1058000000221A637B68282283F83D207868FFF71E
:105810000DF87B6893F83D30DBB2282B11D17B6803
:10582000154ADA627B6800221A637B68202283F8BB
:105830003D207B68002283F83E207868FFF70EF851
:1058400014E07B681B6B222B02D0FB7B222B0DD13B
:105850007B6800221A637B68202283F83D207B68E6
:10586000002283F83E207868FEF7E0FF00BF103783
:10587000BD4680BD695E00080000FFFF80B584B0B2
:1058800000AF78607B6893F83D30FB737B68DB6A20
:10589000BB60BB68082B02D0BB68202B29D1FB7BE7
:1058A000282B26D17B682E4ADA627B681B685A68EF
:1058B0007B681B6822F4E0625A607B681B686FF4A7
:1058C00080625A617B681B681A687B681B6822F4D7
:1058D00080621A607B6800221A637B68202283F84A
:1058E0003D207B68002283F83E207868FEF7B6FFF3
:1058F00031E0FB7B212B29D17B68194ADA627B6876
:1059000021221A637B68202283F83D207B680022D5
:1059100083F83E207B681B685A687B681B6822F40A
:10592000E0625A607B681B686FF480625A617B6832
:105930001B681A687B681B6822F480621A607868AA
:10594000FEF71EFA7868FEF767FF04E07B681B68C5
:105950006FF480625A6100BF1037BD4680BD00BF42
:105960000000FFFF80B584B000AF78607B6893F8DB
:105970003D30FB737B6893F83E30BB73BB7B102BD1
:1059800002D0BB7B402B0AD1FB7B222B07D17B684B
:105990001B681A687B681B6822F400621A60FB7B34
:1059A00003F02803282B07D17B6800221A637B6849
:1059B000282283F83D2015E07B681B685B6803F4B0
:1059C0000063B3F5006F0AD0FB7B602B07D07B68C8
:1059D000202283F83D207B68002283F83E207B68EC
:1059E00000221A637B681B685B6803F40063B3F5ED
:1059F000006F62D17B681B685A687B681B6822F461
:105A000000625A607B685B6B93F83530DBB2012B28
:105A100020D07B685B6B6A4A1A657B685B6B1846B3
:105A2000FDF769FE0346002B00F089807B681B6848
:105A30001A687B681B6822F001021A607B682022CA
:105A400083F83D207B685B6B1B6D7A68526B104658
:105A5000984774E07B689B6B594A1A657B689B6B1F
:105A60001846FDF748FE0346002B68D07B681B688C
:105A70005B6903F04003402B0BD17B681B681A69FC
:105A80007B685B6AD2B21A707B685B6A5A1C7B685F
:105A90005A627B681B681A687B681B6822F00102E7
:105AA0001A607B68202283F83D207B689B6B1B6D0E
:105AB0007A68926B1046984741E07B6893F83D30D6
:105AC000DBB2602B25D17B68202283F83D207B68E8
:105AD00000221A647B681B685B6903F04003402B5B
